###############################################################################
#
# IAR ELF Linker V8.22.1.15669/W32 for ARM                06/Mar/2019  19:10:58
# Copyright 2007-2018 IAR Systems AB.
#
#    Output file  =  
#        C:\Users\Adinor\Documents\stm32_master\RTOS_Main_App\STM32_Main_App\EWARM\STM32_Main_App\Exe\STM32_Main_App.out
#    Map file     =  
#        C:\Users\Adinor\Documents\stm32_master\RTOS_Main_App\STM32_Main_App\EWARM\STM32_Main_App\List\STM32_Main_App.map
#    Command line =  
#        -f C:\Users\Adinor\AppData\Local\Temp\EWEDBF.tmp
#        (C:\Users\Adinor\Documents\stm32_master\RTOS_Main_App\STM32_Main_App\EWARM\STM32_Main_App\Obj\diskio.o
#        C:\Users\Adinor\Documents\stm32_master\RTOS_Main_App\STM32_Main_App\EWARM\STM32_Main_App\Obj\fatfs.o
#        C:\Users\Adinor\Documents\stm32_master\RTOS_Main_App\STM32_Main_App\EWARM\STM32_Main_App\Obj\ff.o
#        C:\Users\Adinor\Documents\stm32_master\RTOS_Main_App\STM32_Main_App\EWARM\STM32_Main_App\Obj\ff_gen_drv.o
#        C:\Users\Adinor\Documents\stm32_master\RTOS_Main_App\STM32_Main_App\EWARM\STM32_Main_App\Obj\LF__ADS1115_Driver.o
#        C:\Users\Adinor\Documents\stm32_master\RTOS_Main_App\STM32_Main_App\EWARM\STM32_Main_App\Obj\LF__EventThread.o
#        C:\Users\Adinor\Documents\stm32_master\RTOS_Main_App\STM32_Main_App\EWARM\STM32_Main_App\Obj\LF__LED_Driver.o
#        C:\Users\Adinor\Documents\stm32_master\RTOS_Main_App\STM32_Main_App\EWARM\STM32_Main_App\Obj\LF__NetworkManagerThread.o
#        C:\Users\Adinor\Documents\stm32_master\RTOS_Main_App\STM32_Main_App\EWARM\STM32_Main_App\Obj\LF__ProcessInputThread.o
#        C:\Users\Adinor\Documents\stm32_master\RTOS_Main_App\STM32_Main_App\EWARM\STM32_Main_App\Obj\LF__Utilities.o
#        C:\Users\Adinor\Documents\stm32_master\RTOS_Main_App\STM32_Main_App\EWARM\STM32_Main_App\Obj\LF_GPIO_Driver.o
#        C:\Users\Adinor\Documents\stm32_master\RTOS_Main_App\STM32_Main_App\EWARM\STM32_Main_App\Obj\LF_LCD_Driver.o
#        C:\Users\Adinor\Documents\stm32_master\RTOS_Main_App\STM32_Main_App\EWARM\STM32_Main_App\Obj\LF_PWM_Driver.o
#        C:\Users\Adinor\Documents\stm32_master\RTOS_Main_App\STM32_Main_App\EWARM\STM32_Main_App\Obj\main.o
#        C:\Users\Adinor\Documents\stm32_master\RTOS_Main_App\STM32_Main_App\EWARM\STM32_Main_App\Obj\startup_stm32f401xe.o
#        C:\Users\Adinor\Documents\stm32_master\RTOS_Main_App\STM32_Main_App\EWARM\STM32_Main_App\Obj\stm32f4xx_hal.o
#        C:\Users\Adinor\Documents\stm32_master\RTOS_Main_App\STM32_Main_App\EWARM\STM32_Main_App\Obj\stm32f4xx_hal_adc.o
#        C:\Users\Adinor\Documents\stm32_master\RTOS_Main_App\STM32_Main_App\EWARM\STM32_Main_App\Obj\stm32f4xx_hal_adc_ex.o
#        C:\Users\Adinor\Documents\stm32_master\RTOS_Main_App\STM32_Main_App\EWARM\STM32_Main_App\Obj\stm32f4xx_hal_cortex.o
#        C:\Users\Adinor\Documents\stm32_master\RTOS_Main_App\STM32_Main_App\EWARM\STM32_Main_App\Obj\stm32f4xx_hal_dma.o
#        C:\Users\Adinor\Documents\stm32_master\RTOS_Main_App\STM32_Main_App\EWARM\STM32_Main_App\Obj\stm32f4xx_hal_dma_ex.o
#        C:\Users\Adinor\Documents\stm32_master\RTOS_Main_App\STM32_Main_App\EWARM\STM32_Main_App\Obj\stm32f4xx_hal_flash.o
#        C:\Users\Adinor\Documents\stm32_master\RTOS_Main_App\STM32_Main_App\EWARM\STM32_Main_App\Obj\stm32f4xx_hal_flash_ex.o
#        C:\Users\Adinor\Documents\stm32_master\RTOS_Main_App\STM32_Main_App\EWARM\STM32_Main_App\Obj\stm32f4xx_hal_flash_ramfunc.o
#        C:\Users\Adinor\Documents\stm32_master\RTOS_Main_App\STM32_Main_App\EWARM\STM32_Main_App\Obj\stm32f4xx_hal_gpio.o
#        C:\Users\Adinor\Documents\stm32_master\RTOS_Main_App\STM32_Main_App\EWARM\STM32_Main_App\Obj\stm32f4xx_hal_i2c.o
#        C:\Users\Adinor\Documents\stm32_master\RTOS_Main_App\STM32_Main_App\EWARM\STM32_Main_App\Obj\stm32f4xx_hal_i2c_ex.o
#        C:\Users\Adinor\Documents\stm32_master\RTOS_Main_App\STM32_Main_App\EWARM\STM32_Main_App\Obj\stm32f4xx_hal_msp.o
#        C:\Users\Adinor\Documents\stm32_master\RTOS_Main_App\STM32_Main_App\EWARM\STM32_Main_App\Obj\stm32f4xx_hal_pwr.o
#        C:\Users\Adinor\Documents\stm32_master\RTOS_Main_App\STM32_Main_App\EWARM\STM32_Main_App\Obj\stm32f4xx_hal_pwr_ex.o
#        C:\Users\Adinor\Documents\stm32_master\RTOS_Main_App\STM32_Main_App\EWARM\STM32_Main_App\Obj\stm32f4xx_hal_rcc.o
#        C:\Users\Adinor\Documents\stm32_master\RTOS_Main_App\STM32_Main_App\EWARM\STM32_Main_App\Obj\stm32f4xx_hal_rcc_ex.o
#        C:\Users\Adinor\Documents\stm32_master\RTOS_Main_App\STM32_Main_App\EWARM\STM32_Main_App\Obj\stm32f4xx_hal_spi.o
#        C:\Users\Adinor\Documents\stm32_master\RTOS_Main_App\STM32_Main_App\EWARM\STM32_Main_App\Obj\stm32f4xx_hal_tim.o
#        C:\Users\Adinor\Documents\stm32_master\RTOS_Main_App\STM32_Main_App\EWARM\STM32_Main_App\Obj\stm32f4xx_hal_tim_ex.o
#        C:\Users\Adinor\Documents\stm32_master\RTOS_Main_App\STM32_Main_App\EWARM\STM32_Main_App\Obj\stm32f4xx_hal_timebase_TIM.o
#        C:\Users\Adinor\Documents\stm32_master\RTOS_Main_App\STM32_Main_App\EWARM\STM32_Main_App\Obj\stm32f4xx_hal_uart.o
#        C:\Users\Adinor\Documents\stm32_master\RTOS_Main_App\STM32_Main_App\EWARM\STM32_Main_App\Obj\stm32f4xx_hal_wwdg.o
#        C:\Users\Adinor\Documents\stm32_master\RTOS_Main_App\STM32_Main_App\EWARM\STM32_Main_App\Obj\stm32f4xx_it.o
#        C:\Users\Adinor\Documents\stm32_master\RTOS_Main_App\STM32_Main_App\EWARM\STM32_Main_App\Obj\syscall.o
#        C:\Users\Adinor\Documents\stm32_master\RTOS_Main_App\STM32_Main_App\EWARM\STM32_Main_App\Obj\system_stm32f4xx.o
#        C:\Users\Adinor\Documents\stm32_master\RTOS_Main_App\STM32_Main_App\threadx\cortex-m4\iar\Debug\Exe\tx.a
#        C:\Users\Adinor\Documents\stm32_master\RTOS_Main_App\STM32_Main_App\EWARM\STM32_Main_App\Obj\user_diskio.o
#        C:\Users\Adinor\Documents\stm32_master\RTOS_Main_App\STM32_Main_App\EWARM\STM32_Main_App\Obj\user_diskio_spi.o
#        --redirect _Printf=_PrintfFull --redirect _Scanf=_ScanfFull -o
#        C:\Users\Adinor\Documents\stm32_master\RTOS_Main_App\STM32_Main_App\EWARM\STM32_Main_App\Exe\STM32_Main_App.out
#        --map
#        C:\Users\Adinor\Documents\stm32_master\RTOS_Main_App\STM32_Main_App\EWARM\STM32_Main_App\List\STM32_Main_App.map
#        --config
#        C:\Users\Adinor\Documents\stm32_master\RTOS_Main_App\STM32_Main_App\EWARM/stm32f401xe_flash.icf
#        --semihosting --entry __iar_program_start --vfe --text_out locale)
#
###############################################################################

*******************************************************************************
*** RUNTIME MODEL ATTRIBUTES
***

CppFlavor       = *
__SystemLibrary = DLib
__dlib_version  = 6


*******************************************************************************
*** HEAP SELECTION
***

The basic heap was selected because no calls to memory allocation
functions were found in the application outside of system library
functions, and there are calls to deallocation functions in the
application.


*******************************************************************************
*** PLACEMENT SUMMARY
***

"A0":  place at 0x08000000 { ro section .intvec };
"P1":  place in [from 0x08000000 to 0x0807ffff] { ro };
define block CSTACK with size = 1K, alignment = 8 { };
define block HEAP with size = 512, alignment = 8 { };
"P2":  place in [from 0x20000000 to 0x20017fff] {
          rw, block CSTACK, block HEAP };
"P3":  place in [from 0x20000000 to 0x20017fff] { last section FREE_MEM };
initialize by copy { rw };

  Section            Kind        Address     Size  Object
  -------            ----        -------     ----  ------
"A0":                                       0x194
  .intvec            ro code  0x08000000    0x194  startup_stm32f401xe.o [1]
                            - 0x08000194    0x194

"P1":                                      0xf7e3
  .text              ro code  0x08000194   0x4ab4  LF__EventThread.o [1]
  .text              ro code  0x08004c48     0x60  txe_queue_receive.o [7]
  .text              ro code  0x08004ca8     0x94  tx_thread_sleep.o [7]
  .text              ro code  0x08004d3c    0x1c4  LF_GPIO_Driver.o [1]
  .text              ro code  0x08004f00    0x17e  LF_LCD_Driver.o [1]
  .text              ro code  0x0800507e     0x7a  lz77_init_single.o [5]
  .text              ro code  0x080050f8    0x198  LF__ADS1115_Driver.o [1]
  .text              ro code  0x08005290    0x2bc  LF__Utilities.o [1]
  .text              ro code  0x0800554c    0x230  LF_PWM_Driver.o [1]
  .text              ro code  0x0800577c    0x134  LF__LED_Driver.o [1]
  .text              ro code  0x080058b0     0xa6  ABImemcpy.o [5]
  .text              ro code  0x08005956     0x1e  xencoding_8859_1.o [3]
  .text              ro code  0x08005974     0x20  txe_timer_activate.o [7]
  .text              ro code  0x08005994     0x48  FltToDbl.o [4]
  .text              ro code  0x080059dc     0x2e  DblCmpLe.o [4]
  .text              ro code  0x08005a0a      0xa  xsprout.o [3]
  .text              ro code  0x08005a14     0xf0  txe_timer_create.o [7]
  .text              ro code  0x08005b04     0x20  strcat.o [3]
  .text              ro code  0x08005b24     0x36  strlen.o [5]
  .text              ro code  0x08005b5c     0x40  sprintf.o [3]
  .text              ro code  0x08005b9c     0x4c  strcpy.o [5]
  .text              ro code  0x08005be8     0x20  txe_timer_deactivate.o [7]
  .text              ro code  0x08005c08     0x54  txe_timer_delete.o [7]
  .text              ro code  0x08005c5c      0x6  ABImemclr4.o [5]
  .text              ro code  0x08005c64     0x3a  DblToS32.o [4]
  .text              ro code  0x08005ca0     0x1a  U32ToDbl.o [4]
  .text              ro code  0x08005cbc     0xe2  DblSub.o [4]
  .text              ro code  0x08005da0    0x178  DblAdd.o [4]
  .text              ro code  0x08005f18    0x246  DblDiv.o [4]
  .text              ro code  0x08006160     0x68  DblToFlt.o [4]
  .text              ro code  0x080061c8    0x1a2  DblMul.o [4]
  .text              ro code  0x0800636c     0x2e  DblCmpGe.o [4]
  .text              ro code  0x0800639c     0x20  DblCmpEq.o [4]
  .text              ro code  0x080063bc    0x102  sqrt.o [4]
  .text              ro code  0x080064be     0x12  math_wrappers64.o [4]
  .text              ro code  0x080064d0    0x1ea  stm32f4xx_hal_gpio.o [1]
  .text              ro code  0x080066bc    0x1f4  tx_queue_receive.o [7]
  .text              ro code  0x080068b0    0x2c0  tx_thread_system_suspend.o [7]
  .text              ro code  0x08006b70    0x7bc  stm32f4xx_hal_i2c.o [1]
  .text              ro code  0x0800732c     0x22  S32ToDbl.o [4]
  .text              ro code  0x08007350   0x19a4  ff.o [1]
  .text              ro code  0x08008cf4     0x70  strncpy.o [5]
  .text              ro code  0x08008d64    0x1dc  stm32f4xx_hal_rcc.o [1]
  .text              ro code  0x08008f40    0x45a  stm32f4xx_hal_uart.o [1]
  .text              ro code  0x0800939c    0x65e  stm32f4xx_hal_tim.o [1]
  .text              ro code  0x080099fc     0x4a  stm32f4xx_hal_tim_ex.o [1]
  .text              ro code  0x08009a48    0x3dc  main.o [1]
  .text              ro code  0x08009e24     0x2a  tx_timer_activate.o [7]
  .text              ro code  0x08009e50     0xc0  tx_thread_system_preempt_check.o [7]
  .text              ro code  0x08009f10     0x84  tx_timer_create.o [7]
  .text              ro code  0x08009f94    0xf96  xprintffull.o [3]
  .text              ro code  0x0800af2c     0xcc  tx_timer_deactivate.o [7]
  .text              ro code  0x0800aff8     0x5c  tx_timer_delete.o [7]
  .text              ro code  0x0800b054     0x32  ABImemset48.o [5]
  .text              ro code  0x0800b088     0xac  atan64.o [4]
  .text              ro code  0x0800b134    0x2b4  tx_thread_system_resume.o [7]
  .text              ro code  0x0800b3e8     0x20  tx_thread_stack_error_handler.o [7]
  .text              ro code  0x0800b408     0x84  tx_thread_stack_analyze.o [7]
  .text              ro code  0x0800b48c     0x68  tx_timer_system_activate.o [7]
  .text              ro code  0x0800b4f4    0x27c  stm32f4xx_hal_msp.o [1]
  .text              ro code  0x0800b770      0xc  stm32f4xx_hal.o [1]
  .text              ro code  0x0800b77c     0x74  diskio.o [1]
  .text              ro code  0x0800b7f0     0x1c  fatfs.o [1]
  .text              ro code  0x0800b80c     0x66  ABImemset.o [5]
  .text              ro code  0x0800b874     0x7c  stm32f4xx_hal_timebase_TIM.o [1]
  .text              ro code  0x0800b8f0    0x22e  I64DivMod.o [5]
  .text              ro code  0x0800bb20    0x354  stm32f4xx_hal_dma.o [1]
  .text              ro code  0x0800be74    0x404  LF__NetworkManagerThread.o [1]
  .text              ro code  0x0800c278      0x2  stm32f4xx_hal_uart.o [1]
  .text              ro code  0x0800c27a      0x2  stm32f4xx_hal_uart.o [1]
  .text              ro code  0x0800c27c      0x2  stm32f4xx_hal_tim.o [1]
  .text              ro code  0x0800c27e      0x2  stm32f4xx_hal_tim.o [1]
  .text              ro code  0x0800c280      0x2  stm32f4xx_hal_tim.o [1]
  .text              ro code  0x0800c282      0x2  stm32f4xx_hal_tim_ex.o [1]
  .text              ro code  0x0800c284      0x2  stm32f4xx_hal_tim.o [1]
  .text              ro code  0x0800c286      0x2  stm32f4xx_hal_tim_ex.o [1]
  .text              ro code  0x0800c288      0x2  stm32f4xx_hal_tim.o [1]
  .text              ro code  0x0800c28c     0x34  stm32f4xx_hal.o [1]
  .text              ro code  0x0800c2c0     0x28  stm32f4xx_hal.o [1]
  .text              ro code  0x0800c2e8     0x42  stm32f4xx_hal_i2c_ex.o [1]
  .text              ro code  0x0800c32c    0x314  stm32f4xx_hal_spi.o [1]
  .text              ro code  0x0800c640     0xe0  stm32f4xx_hal_cortex.o [1]
  .text              ro code  0x0800c720     0x50  tx_initialize_kernel_enter.o [7]
  .text              ro code  0x0800c770     0xe0  txe_byte_pool_create.o [7]
  .text              ro code  0x0800c850    0x160  txe_thread_create.o [7]
  .text              ro code  0x0800c9b0     0xf8  txe_queue_create.o [7]
  .text              ro code  0x0800caa8     0xcc  txe_semaphore_create.o [7]
  .text              ro code  0x0800cb74     0xd4  txe_mutex_create.o [7]
  .text              ro code  0x0800cc48     0xf4  txe_block_pool_create.o [7]
  .text              ro code  0x0800cd3c     0x60  txe_block_allocate.o [7]
  .text              ro code  0x0800cd9c     0x2c  txe_block_release.o [7]
  .text              ro code  0x0800cdc8     0x98  txe_byte_allocate.o [7]
  .text              ro code  0x0800ce60    0x2f0  stm32f4xx_hal_rcc.o [1]
  .text              ro code  0x0800d150     0x60  txe_queue_send.o [7]
  .text              ro code  0x0800d1b0     0x10  stm32f4xx_hal.o [1]
  .text              ro code  0x0800d1c0     0x74  xlocale_c.o [3]
  .text              ro code  0x0800d234     0x16  strchr.o [5]
  .text              ro code  0x0800d24c     0x40  xfail_s.o [3]
  .text              ro code  0x0800d28c     0x58  memchr.o [5]
  .text              ro code  0x0800d2e4      0xa  xmbcurmax.o [3]
  .text              ro code  0x0800d2f0     0x70  frexp.o [4]
  .text              ro code  0x0800d360    0x13a  ldexp.o [4]
  .text              ro code  0x0800d49c     0x28  DblToU32.o [4]
  .text              ro code  0x0800d4c4     0x2e  tx_timer_system_deactivate.o [7]
  .text              ro code  0x0800d4f8    0x208  iar_Atan64.o [4]
  .text              ro code  0x0800d700     0x40  ff_gen_drv.o [1]
  .text              ro code  0x0800d740      0x2  I64DivZer.o [5]
  .text              ro code  0x0800d744     0x74  tx_initialize_low_level.o [7]
  .text              ro code  0x0800d7b8     0x84  tx_initialize_high_level.o [7]
  .text              ro code  0x0800d83c     0xc8  tx_thread_schedule.o [7]
  .text              ro code  0x0800d904     0x90  tx_byte_pool_create.o [7]
  .text              ro code  0x0800d994    0x17c  tx_thread_create.o [7]
  .text              ro code  0x0800db10     0x84  tx_queue_create.o [7]
  .text              ro code  0x0800db94     0x60  tx_semaphore_create.o [7]
  .text              ro code  0x0800dbf4     0x6c  tx_mutex_create.o [7]
  .text              ro code  0x0800dc60     0xb8  tx_block_pool_create.o [7]
  .text              ro code  0x0800dd18     0xb0  tx_block_allocate.o [7]
  .text              ro code  0x0800ddc8     0x6c  tx_block_release.o [7]
  .text              ro code  0x0800de34     0xf8  tx_byte_allocate.o [7]
  .text              ro code  0x0800df2c    0x164  tx_queue_send.o [7]
  .text              ro code  0x0800e090      0x6  abort.o [3]
  .text              ro code  0x0800e098     0xe4  tx_timer_interrupt.o [7]
  .text              ro code  0x0800e17c     0x94  tx_thread_initialize.o [7]
  .text              ro code  0x0800e210     0xf0  tx_timer_initialize.o [7]
  .text              ro code  0x0800e300     0x48  tx_thread_stack_build.o [7]
  .text              ro code  0x0800e348    0x110  tx_byte_pool_search.o [7]
  .text              ro code  0x0800e458     0x14  exit.o [6]
  .text              ro code  0x0800e46c     0x28  tx_timer_expiration_process.o [7]
  .text              ro code  0x0800e494    0x160  tx_thread_time_slice.o [7]
  .text              ro code  0x0800e5f4    0x566  user_diskio_spi.o [1]
  .text              ro code  0x0800eb5c    0x224  tx_mutex_put.o [7]
  .text              ro code  0x0800ed80     0xb0  tx_mutex_prioritize.o [7]
  .text              ro code  0x0800ee30     0xf8  tx_mutex_priority_change.o [7]
  .text              ro code  0x0800ef28    0x13c  tx_timer_thread_entry.o [7]
  .text              ro code  0x0800f064    0x12c  stm32f4xx_hal_adc.o [1]
  .text              ro code  0x0800f190     0xa8  LF__ProcessInputThread.o [1]
  .text              ro code  0x0800f238      0x2  stm32f4xx_hal_adc_ex.o [1]
  .text              ro code  0x0800f23a      0x2  stm32f4xx_hal_adc.o [1]
  .text              ro code  0x0800f23c      0x2  stm32f4xx_hal_adc.o [1]
  .text              ro code  0x0800f240     0x20  txe_thread_wait_abort.o [7]
  .text              ro code  0x0800f260     0x94  tx_thread_wait_abort.o [7]
  .text              ro code  0x0800f2f4     0x98  tx_queue_cleanup.o [7]
  .text              ro code  0x0800f38c     0x88  tx_block_pool_cleanup.o [7]
  .text              ro code  0x0800f414     0x88  tx_byte_pool_cleanup.o [7]
  .text              ro code  0x0800f49c     0x7c  tx_thread_shell_entry.o [7]
  .text              ro code  0x0800f518     0x60  system_stm32f4xx.o [1]
  .text              ro code  0x0800f578     0x54  stm32f4xx_it.o [1]
  .text              ro code  0x0800f5cc     0x4c  tx_mutex_cleanup.o [7]
  .text              ro code  0x0800f618     0x40  zero_init3.o [5]
  .text              ro code  0x0800f658     0x3c  tx_thread_timeout.o [7]
  .text              ro code  0x0800f694     0x28  data_init.o [5]
  .text              ro code  0x0800f6bc     0x22  fpinit_M.o [4]
  .iar.init_table    const    0x0800f6e0     0x28  - Linker created -
  .rodata            const    0x0800f708     0x20  LF__Utilities.o [1]
  .text              ro code  0x0800f728     0x1e  cmain.o [5]
  .text              ro code  0x0800f746      0x4  low_level_init.o [3]
  .text              ro code  0x0800f74a      0x4  exit.o [3]
  .text              ro code  0x0800f750      0xa  cexit.o [5]
  .rodata            const    0x0800f75c     0x14  tx_timer_initialize.o [7]
  .text              ro code  0x0800f770     0x14  user_diskio.o [1]
  .text              ro code  0x0800f784     0x10  startup_stm32f401xe.o [1]
  .text              ro code  0x0800f794      0xc  cstartup_M.o [5]
  .rodata            const    0x0800f7a0      0x8  system_stm32f4xx.o [1]
  .rodata            const    0x0800f7a8      0x6  xlocale_c.o [3]
  .text              ro code  0x0800f7ae      0x4  startup_stm32f401xe.o [1]
  .text              ro code  0x0800f7b2      0x4  startup_stm32f401xe.o [1]
  .text              ro code  0x0800f7b6      0x4  startup_stm32f401xe.o [1]
  .text              ro code  0x0800f7ba      0x4  startup_stm32f401xe.o [1]
  .text              ro code  0x0800f7be      0x4  startup_stm32f401xe.o [1]
  .text              ro code  0x0800f7c2      0x4  startup_stm32f401xe.o [1]
  .text              ro code  0x0800f7c6      0x4  startup_stm32f401xe.o [1]
  .text              ro code  0x0800f7ca      0x4  startup_stm32f401xe.o [1]
  .text              ro code  0x0800f7ce      0x4  startup_stm32f401xe.o [1]
  .text              ro code  0x0800f7d2      0x4  startup_stm32f401xe.o [1]
  .text              ro code  0x0800f7d6      0x4  startup_stm32f401xe.o [1]
  .text              ro code  0x0800f7da      0x4  startup_stm32f401xe.o [1]
  .text              ro code  0x0800f7de      0x4  startup_stm32f401xe.o [1]
  .text              ro code  0x0800f7e2      0x4  startup_stm32f401xe.o [1]
  .text              ro code  0x0800f7e6      0x4  startup_stm32f401xe.o [1]
  .text              ro code  0x0800f7ea      0x4  startup_stm32f401xe.o [1]
  .text              ro code  0x0800f7ee      0x4  startup_stm32f401xe.o [1]
  .text              ro code  0x0800f7f2      0x4  startup_stm32f401xe.o [1]
  .text              ro code  0x0800f7f6      0x4  startup_stm32f401xe.o [1]
  .text              ro code  0x0800f7fa      0x4  startup_stm32f401xe.o [1]
  .text              ro code  0x0800f7fe      0x4  startup_stm32f401xe.o [1]
  .text              ro code  0x0800f802      0x4  startup_stm32f401xe.o [1]
  .text              ro code  0x0800f806      0x4  startup_stm32f401xe.o [1]
  .text              ro code  0x0800f80a      0x4  startup_stm32f401xe.o [1]
  .text              ro code  0x0800f80e      0x4  startup_stm32f401xe.o [1]
  .text              ro code  0x0800f812      0x4  startup_stm32f401xe.o [1]
  .text              ro code  0x0800f816      0x4  startup_stm32f401xe.o [1]
  .text              ro code  0x0800f81a      0x4  startup_stm32f401xe.o [1]
  .text              ro code  0x0800f81e      0x4  startup_stm32f401xe.o [1]
  .text              ro code  0x0800f822      0x4  startup_stm32f401xe.o [1]
  .text              ro code  0x0800f826      0x4  startup_stm32f401xe.o [1]
  .text              ro code  0x0800f82a      0x4  startup_stm32f401xe.o [1]
  .text              ro code  0x0800f82e      0x4  startup_stm32f401xe.o [1]
  .text              ro code  0x0800f832      0x4  startup_stm32f401xe.o [1]
  .text              ro code  0x0800f836      0x4  startup_stm32f401xe.o [1]
  .text              ro code  0x0800f83a      0x4  startup_stm32f401xe.o [1]
  .text              ro code  0x0800f83e      0x4  startup_stm32f401xe.o [1]
  .text              ro code  0x0800f842      0x4  startup_stm32f401xe.o [1]
  .text              ro code  0x0800f846      0x4  startup_stm32f401xe.o [1]
  .text              ro code  0x0800f84a      0x4  startup_stm32f401xe.o [1]
  .text              ro code  0x0800f84e      0x4  startup_stm32f401xe.o [1]
  .text              ro code  0x0800f852      0x4  startup_stm32f401xe.o [1]
  .text              ro code  0x0800f856      0x4  startup_stm32f401xe.o [1]
  .text              ro code  0x0800f85a      0x4  startup_stm32f401xe.o [1]
  .text              ro code  0x0800f85e      0x4  startup_stm32f401xe.o [1]
  .text              ro code  0x0800f862      0x4  startup_stm32f401xe.o [1]
  .text              ro code  0x0800f866      0x4  startup_stm32f401xe.o [1]
  .text              ro code  0x0800f86a      0x4  startup_stm32f401xe.o [1]
  .text              ro code  0x0800f86e      0x4  startup_stm32f401xe.o [1]
  .text              ro code  0x0800f872      0x4  startup_stm32f401xe.o [1]
  .text              ro code  0x0800f876      0x4  startup_stm32f401xe.o [1]
  .rodata            const    0x0800f87a      0x0  zero_init3.o [5]
  .rodata            const    0x0800f87a      0x0  lz77_init_single.o [5]
  Initializer bytes  const    0x0800f87a     0xfd  <for P2-1>
                            - 0x0800f977   0xf7e3

"P2", part 1 of 3:                         0x2a9a
  P2-1                        0x20000000   0x2a9a  <Init block>
    .data            inited   0x20000000   0x26cc  LF__EventThread.o [1]
    .data            inited   0x200026cc     0x6c  LF__EventThread.o [1]
    .data            inited   0x20002738     0x28  LF__EventThread.o [1]
    .data            inited   0x20002760    0x290  LF__Utilities.o [1]
    .data            inited   0x200029f0      0xc  stm32f4xx_hal.o [1]
    .data            inited   0x200029fc      0x4  system_stm32f4xx.o [1]
    .data            inited   0x20002a00     0x14  user_diskio.o [1]
    .data            inited   0x20002a14      0x4  tx_thread_initialize.o [7]
    .data            inited   0x20002a18     0x38  xlocale_c.o [3]
    .data            inited   0x20002a50     0x48  xlocale_c.o [3]
    .data            inited   0x20002a98      0x2  user_diskio_spi.o [1]
                            - 0x20002a9a   0x2a9a

"P2", part 2 of 3:                        0x11130
  .bss               zero     0x20002a9c   0x8340  LF__EventThread.o [1]
  .bss               zero     0x2000addc   0x2260  LF__EventThread.o [1]
  .bss               zero     0x2000d03c   0x2260  LF__EventThread.o [1]
  .bss               zero     0x2000f29c   0x2260  LF__EventThread.o [1]
  .bss               zero     0x200114fc    0xe10  LF__EventThread.o [1]
  .bss               zero     0x2001230c    0x640  LF__EventThread.o [1]
  .bss               zero     0x2001294c    0x400  tx_timer_initialize.o [7]
  .bss               zero     0x20012d4c    0x320  LF__EventThread.o [1]
  .bss               zero     0x2001306c    0x310  main.o [1]
  .bss               zero     0x2001337c    0x208  ff.o [1]
  .bss               zero     0x20013584    0x140  main.o [1]
  .bss               zero     0x200136c4     0xb4  tx_timer_initialize.o [7]
  .bss               zero     0x20013778     0x80  tx_thread_initialize.o [7]
  .bss               zero     0x200137f8     0x80  tx_timer_initialize.o [7]
  .bss               zero     0x20013878     0x64  LF__Utilities.o [1]
  .bss               zero     0x200138dc     0x60  main.o [1]
  .bss               zero     0x2001393c     0x60  main.o [1]
  .bss               zero     0x2001399c     0x48  main.o [1]
  .bss               zero     0x200139e4     0x3c  LF_PWM_Driver.o [1]
  .bss               zero     0x20013a20     0x3c  LF_PWM_Driver.o [1]
  .bss               zero     0x20013a5c     0x3c  stm32f4xx_hal_timebase_TIM.o [1]
  .bss               zero     0x20013a98     0x20  ff.o [1]
  .bss               zero     0x20013ab8     0x14  LF__EventThread.o [1]
  .bss               zero     0x20013acc     0x14  LF__EventThread.o [1]
  .bss               zero     0x20013ae0     0x14  LF__EventThread.o [1]
  .bss               zero     0x20013af4     0x10  LF__NetworkManagerThread.o [1]
  .bss               zero     0x20013b04      0xc  ff_gen_drv.o [1]
  .bss               zero     0x20013b10      0x8  fatfs.o [1]
  .bss               zero     0x20013b18      0x8  user_diskio_spi.o [1]
  .bss               zero     0x20013b20      0x5  LF_GPIO_Driver.o [1]
  .bss               zero     0x20013b25      0x1  LF__ADS1115_Driver.o [1]
  .bss               zero     0x20013b26      0x1  LF__EventThread.o [1]
  .bss               zero     0x20013b27      0x1  LF__ProcessInputThread.o [1]
  .bss               zero     0x20013b28      0x4  LF__EventThread.o [1]
  .bss               zero     0x20013b2c      0x4  tx_thread_initialize.o [7]
  .bss               zero     0x20013b30      0x4  tx_thread_initialize.o [7]
  .bss               zero     0x20013b34      0x4  tx_thread_initialize.o [7]
  .bss               zero     0x20013b38      0x4  tx_thread_initialize.o [7]
  .bss               zero     0x20013b3c      0x4  tx_thread_initialize.o [7]
  .bss               zero     0x20013b40      0x4  tx_thread_initialize.o [7]
  .bss               zero     0x20013b44      0x4  tx_thread_initialize.o [7]
  .bss               zero     0x20013b48      0x4  tx_thread_initialize.o [7]
  .bss               zero     0x20013b4c      0x4  tx_thread_initialize.o [7]
  .bss               zero     0x20013b50      0x4  tx_thread_initialize.o [7]
  .bss               zero     0x20013b54      0x4  tx_thread_initialize.o [7]
  .bss               zero     0x20013b58      0x4  tx_thread_initialize.o [7]
  .bss               zero     0x20013b5c      0x4  tx_timer_initialize.o [7]
  .bss               zero     0x20013b60      0x4  tx_timer_initialize.o [7]
  .bss               zero     0x20013b64      0x4  tx_timer_initialize.o [7]
  .bss               zero     0x20013b68      0x4  tx_timer_initialize.o [7]
  .bss               zero     0x20013b6c      0x4  tx_timer_initialize.o [7]
  .bss               zero     0x20013b70      0x4  tx_timer_initialize.o [7]
  .bss               zero     0x20013b74      0x4  tx_timer_initialize.o [7]
  .bss               zero     0x20013b78      0x4  tx_timer_initialize.o [7]
  .bss               zero     0x20013b7c      0x4  tx_timer_initialize.o [7]
  .bss               zero     0x20013b80      0x4  tx_timer_initialize.o [7]
  .bss               zero     0x20013b84      0x4  tx_timer_initialize.o [7]
  .bss               zero     0x20013b88      0x4  tx_timer_initialize.o [7]
  .bss               zero     0x20013b8c      0x4  tx_timer_initialize.o [7]
  .bss               zero     0x20013b90      0x4  tx_initialize_high_level.o [7]
  .bss               zero     0x20013b94      0x4  tx_initialize_high_level.o [7]
  .bss               zero     0x20013b98      0x4  tx_initialize_high_level.o [7]
  .bss               zero     0x20013b9c      0x4  tx_initialize_high_level.o [7]
  .bss               zero     0x20013ba0      0x4  tx_initialize_high_level.o [7]
  .bss               zero     0x20013ba4      0x4  tx_initialize_high_level.o [7]
  .bss               zero     0x20013ba8      0x4  tx_initialize_high_level.o [7]
  .bss               zero     0x20013bac      0x4  tx_initialize_high_level.o [7]
  .bss               zero     0x20013bb0      0x4  tx_initialize_high_level.o [7]
  .bss               zero     0x20013bb4      0x4  tx_initialize_high_level.o [7]
  .bss               zero     0x20013bb8      0x4  tx_initialize_high_level.o [7]
  .bss               zero     0x20013bbc      0x4  tx_initialize_high_level.o [7]
  .bss               zero     0x20013bc0      0x4  tx_initialize_high_level.o [7]
  .bss               zero     0x20013bc4      0x4  xfail_s.o [3]
  .bss               zero     0x20013bc8      0x1  LF__ProcessInputThread.o [1]
                            - 0x20013bc9  0x1112d

"P2", part 3 of 3:                          0x400
  CSTACK                      0x20013bd0    0x400  <Block>
    CSTACK           uninit   0x20013bd0    0x400  <Block tail>
                            - 0x20013fd0    0x400

"P3":                                        0x10
  FREE_MEM           zero     0x20013fd0     0x10  tx_initialize_low_level.o [7]
                            - 0x20013fe0     0x10


*******************************************************************************
*** INIT TABLE
***

          Address     Size
          -------     ----
Zero (__iar_zero_init3)
    2 destination ranges, total size 0x1113d:
          0x20002a9c  0x1112d
          0x20013fd0     0x10

Copy/lz77 (__iar_lz77_init_single3)
    1 source range, total size 0xfd (2% of destination):
          0x0800f87a     0xfd
    1 destination range, total size 0x2a9a:
          0x20000000   0x2a9a



*******************************************************************************
*** MODULE SUMMARY
***

    Module                            ro code  ro data  rw data
    ------                            -------  -------  -------
C:\Users\Adinor\Documents\stm32_master\RTOS_Main_App\STM32_Main_App\EWARM\STM32_Main_App\Obj: [1]
    LF_GPIO_Driver.o                      452                 5
    LF_LCD_Driver.o                       382
    LF_PWM_Driver.o                       560               120
    LF__ADS1115_Driver.o                  408                 1
    LF__EventThread.o                  19 124      233   76 145
    LF__LED_Driver.o                      308
    LF__NetworkManagerThread.o          1 028                16
    LF__ProcessInputThread.o              168                 2
    LF__Utilities.o                       700       48      756
    diskio.o                              116
    fatfs.o                                28                 8
    ff.o                                6 564               552
    ff_gen_drv.o                           64                12
    main.o                                988             1 368
    startup_stm32f401xe.o                 624
    stm32f4xx_hal.o                       120                12
    stm32f4xx_hal_adc.o                   304
    stm32f4xx_hal_adc_ex.o                  2
    stm32f4xx_hal_cortex.o                224
    stm32f4xx_hal_dma.o                   852
    stm32f4xx_hal_gpio.o                  490
    stm32f4xx_hal_i2c.o                 1 980
    stm32f4xx_hal_i2c_ex.o                 66
    stm32f4xx_hal_msp.o                   636
    stm32f4xx_hal_rcc.o                 1 228
    stm32f4xx_hal_spi.o                   788
    stm32f4xx_hal_tim.o                 1 640
    stm32f4xx_hal_tim_ex.o                 78
    stm32f4xx_hal_timebase_TIM.o          124                60
    stm32f4xx_hal_uart.o                1 118
    stm32f4xx_it.o                         84
    system_stm32f4xx.o                     96        8        4
    user_diskio.o                          20                20
    user_diskio_spi.o                   1 382        1       10
    -----------------------------------------------------------
    Total:                             42 746      290   79 091

command line: [2]
    -----------------------------------------------------------
    Total:

dl7M_tlf.a: [3]
    abort.o                                 6
    exit.o                                  4
    low_level_init.o                        4
    sprintf.o                              64
    strcat.o                               32
    xencoding_8859_1.o                     30
    xfail_s.o                              64                 4
    xlocale_c.o                           116        9      128
    xmbcurmax.o                            10
    xprintffull.o                       3 990
    xsprout.o                              10
    -----------------------------------------------------------
    Total:                              4 330        9      132

m7M_tls.a: [4]
    DblAdd.o                              376
    DblCmpEq.o                             32
    DblCmpGe.o                             46
    DblCmpLe.o                             46
    DblDiv.o                              582
    DblMul.o                              418
    DblSub.o                              226
    DblToFlt.o                            104
    DblToS32.o                             58
    DblToU32.o                             40
    FltToDbl.o                             72
    S32ToDbl.o                             34
    U32ToDbl.o                             26
    atan64.o                              172
    fpinit_M.o                             34
    frexp.o                               112
    iar_Atan64.o                          520
    ldexp.o                               314
    math_wrappers64.o                      18
    sqrt.o                                258
    -----------------------------------------------------------
    Total:                              3 488

rt7M_tl.a: [5]
    ABImemclr4.o                            6
    ABImemcpy.o                           166
    ABImemset.o                           102
    ABImemset48.o                          50
    I64DivMod.o                           558
    I64DivZer.o                             2
    cexit.o                                10
    cmain.o                                30
    cstartup_M.o                           12
    data_init.o                            40
    lz77_init_single.o                    122
    memchr.o                               88
    strchr.o                               22
    strcpy.o                               76
    strlen.o                               54
    strncpy.o                             112
    zero_init3.o                           64
    -----------------------------------------------------------
    Total:                              1 514

shb_l.a: [6]
    exit.o                                 20
    -----------------------------------------------------------
    Total:                                 20

tx.a: [7]
    tx_block_allocate.o                   176
    tx_block_pool_cleanup.o               136
    tx_block_pool_create.o                184
    tx_block_release.o                    108
    tx_byte_allocate.o                    248
    tx_byte_pool_cleanup.o                136
    tx_byte_pool_create.o                 144
    tx_byte_pool_search.o                 272
    tx_initialize_high_level.o            132                52
    tx_initialize_kernel_enter.o           80
    tx_initialize_low_level.o             116                16
    tx_mutex_cleanup.o                     76
    tx_mutex_create.o                     108
    tx_mutex_prioritize.o                 176
    tx_mutex_priority_change.o            248
    tx_mutex_put.o                        548
    tx_queue_cleanup.o                    152
    tx_queue_create.o                     132
    tx_queue_receive.o                    500
    tx_queue_send.o                       356
    tx_semaphore_create.o                  96
    tx_thread_create.o                    380
    tx_thread_initialize.o                148               180
    tx_thread_schedule.o                  200
    tx_thread_shell_entry.o               124
    tx_thread_sleep.o                     148
    tx_thread_stack_analyze.o             132
    tx_thread_stack_build.o                72
    tx_thread_stack_error_handler.o        32
    tx_thread_system_preempt_check.o      192
    tx_thread_system_resume.o             692
    tx_thread_system_suspend.o            704
    tx_thread_time_slice.o                352
    tx_thread_timeout.o                    60
    tx_thread_wait_abort.o                148
    tx_timer_activate.o                    42
    tx_timer_create.o                     132
    tx_timer_deactivate.o                 204
    tx_timer_delete.o                      92
    tx_timer_expiration_process.o          40
    tx_timer_initialize.o                 240       20    1 384
    tx_timer_interrupt.o                  228
    tx_timer_system_activate.o            104
    tx_timer_system_deactivate.o           46
    tx_timer_thread_entry.o               316
    txe_block_allocate.o                   96
    txe_block_pool_create.o               244
    txe_block_release.o                    44
    txe_byte_allocate.o                   152
    txe_byte_pool_create.o                224
    txe_mutex_create.o                    212
    txe_queue_create.o                    248
    txe_queue_receive.o                    96
    txe_queue_send.o                       96
    txe_semaphore_create.o                204
    txe_thread_create.o                   352
    txe_thread_wait_abort.o                32
    txe_timer_activate.o                   32
    txe_timer_create.o                    240
    txe_timer_deactivate.o                 32
    txe_timer_delete.o                     84
    -----------------------------------------------------------
    Total:                             11 340       20    1 632

    Gaps                                   62        4
    Linker created                                  40    1 024
---------------------------------------------------------------
    Grand Total:                       63 500      363   81 879


*******************************************************************************
*** ENTRY LIST
***

Entry                      Address    Size  Type      Object
-----                      -------    ----  ----      ------
.iar.init_table$$Base   0x0800f6e0           --   Gb  - Linker created -
.iar.init_table$$Limit  0x0800f708           --   Gb  - Linker created -
?main                   0x0800f729          Code  Gb  cmain.o [5]
ADC_IRQHandler          0x0800f587     0x6  Code  Gb  stm32f4xx_it.o [1]
ADC_data                0x20000078  0x2260  Data  Gb  LF__EventThread.o [1]
AHBPrescTable           0x0800f568    0x10  Data  Gb  system_stm32f4xx.o [1]
APBPrescTable           0x0800f7a0     0x8  Data  Gb  system_stm32f4xx.o [1]
BluetoothMsg            0x200025c8    0xc8  Data  Gb  LF__EventThread.o [1]
BusFault_Handler        0x0800f57f     0x2  Code  Gb  stm32f4xx_it.o [1]
CSTACK$$Base            0x20013bd0           --   Gb  - Linker created -
CSTACK$$Limit           0x20013fd0           --   Gb  - Linker created -
CacheMore               0x0800d1c5    0x24  Code  Lc  xlocale_c.o [3]
CardType                0x20002a99     0x1  Data  Lc  user_diskio_spi.o [1]
CharBuffer              0x20013878    0x64  Data  Gb  LF__Utilities.o [1]
DMA1_Stream5_IRQHandler
                        0x0800f593     0x6  Code  Gb  stm32f4xx_it.o [1]
DMA2_Stream0_IRQHandler
                        0x0800f58d     0x6  Code  Gb  stm32f4xx_it.o [1]
DMA_CalcBaseAndBitshift
                        0x0800be45    0x28  Code  Lc  stm32f4xx_hal_dma.o [1]
DMA_CalcBaseAndBitshift::flagBitshiftOffset
                        0x0800be6c     0x8  Data  Lc  stm32f4xx_hal_dma.o [1]
DMA_SetConfig           0x0800be25    0x20  Code  Lc  stm32f4xx_hal_dma.o [1]
DWT_Delay_Init          0x0800543d    0x38  Code  Gb  LF__Utilities.o [1]
DWT_Delay_us            0x08005475    0x24  Code  Gb  LF__Utilities.o [1]
DataAcquire_Timer       0x2000251c    0x2c  Data  Gb  LF__EventThread.o [1]
DebugMon_Handler        0x0800f585     0x2  Code  Gb  stm32f4xx_it.o [1]
DurationTimer           0x080046b9    0x10  Code  Gb  LF__EventThread.o [1]
EXTI15_10_IRQHandler    0x0800f599    0x1e  Code  Gb  stm32f4xx_it.o [1]
EventThread             0x2001306c    0xb4  Data  Gb  main.o [1]
EventThread_entry       0x080001b3    0x30  Code  Gb  LF__EventThread.o [1]
EventThread_entry::initState
                        0x20013b26     0x1  Data  Lc  LF__EventThread.o [1]
Event_Queue             0x20013288    0x3c  Data  Gb  main.o [1]
ExCvt                   0x08008048    0x80  Data  Lc  ff.o [1]
FATFS_LinkDriver        0x0800d739     0x4  Code  Gb  ff_gen_drv.o [1]
FATFS_LinkDriverEx      0x0800d701    0x38  Code  Gb  ff_gen_drv.o [1]
FatFs                   0x20013380     0x4  Data  Lc  ff.o [1]
File1Error              0x2000276c     0x4  Data  Gb  LF__Utilities.o [1]
File2Error              0x20002770     0x4  Data  Gb  LF__Utilities.o [1]
Files                   0x20013a98    0x20  Data  Lc  ff.o [1]
Fsid                    0x2001337c     0x2  Data  Lc  ff.o [1]
HAL_ADCEx_InjectedConvCpltCallback
                        0x0800f239     0x2  Code  Wk  stm32f4xx_hal_adc_ex.o [1]
HAL_ADC_ConvCpltCallback
                        0x0800f20d     0x8  Code  Gb  LF__ProcessInputThread.o [1]
HAL_ADC_IRQHandler      0x0800f065   0x120  Code  Gb  stm32f4xx_hal_adc.o [1]
HAL_DMA_IRQHandler      0x0800bc71   0x188  Code  Gb  stm32f4xx_hal_dma.o [1]
HAL_DMA_Init            0x0800bb21    0xe6  Code  Gb  stm32f4xx_hal_dma.o [1]
HAL_DMA_Start_IT        0x0800bc07    0x6a  Code  Gb  stm32f4xx_hal_dma.o [1]
HAL_Delay               0x0800c2c1    0x28  Code  Wk  stm32f4xx_hal.o [1]
HAL_GPIO_EXTI_IRQHandler
                        0x08006685    0x10  Code  Gb  stm32f4xx_hal_gpio.o [1]
HAL_GPIO_Init           0x080064d1   0x194  Code  Gb  stm32f4xx_hal_gpio.o [1]
HAL_GPIO_ReadPin        0x08006665     0xc  Code  Gb  stm32f4xx_hal_gpio.o [1]
HAL_GPIO_TogglePin      0x0800667d     0x8  Code  Gb  stm32f4xx_hal_gpio.o [1]
HAL_GPIO_WritePin       0x08006671     0xc  Code  Gb  stm32f4xx_hal_gpio.o [1]
HAL_GetTick             0x0800b771     0xc  Code  Wk  stm32f4xx_hal.o [1]
HAL_I2CEx_ConfigAnalogFilter
                        0x0800c2e9    0x42  Code  Gb  stm32f4xx_hal_i2c_ex.o [1]
HAL_I2C_Init            0x08006b71    0xc8  Code  Gb  stm32f4xx_hal_i2c.o [1]
HAL_I2C_Master_Receive  0x08006d0d    0xe2  Code  Gb  stm32f4xx_hal_i2c.o [1]
HAL_I2C_Master_Transmit
                        0x08006c49    0xa2  Code  Gb  stm32f4xx_hal_i2c.o [1]
HAL_I2C_MspInit         0x0800b5a3    0xb4  Code  Gb  stm32f4xx_hal_msp.o [1]
HAL_IncTick             0x0800d1b1    0x10  Code  Wk  stm32f4xx_hal.o [1]
HAL_Init                0x0800c28d    0x30  Code  Gb  stm32f4xx_hal.o [1]
HAL_InitTick            0x0800b875    0x6a  Code  Gb  stm32f4xx_hal_timebase_TIM.o [1]
HAL_MspInit             0x0800b4f5    0x60  Code  Gb  stm32f4xx_hal_msp.o [1]
HAL_NVIC_EnableIRQ      0x0800c6b3     0xa  Code  Gb  stm32f4xx_hal_cortex.o [1]
HAL_NVIC_SetPriority    0x0800c679    0x3a  Code  Gb  stm32f4xx_hal_cortex.o [1]
HAL_NVIC_SetPriorityGrouping
                        0x0800c65f    0x1a  Code  Gb  stm32f4xx_hal_cortex.o [1]
HAL_RCC_ClockConfig     0x08008d65    0xfe  Code  Gb  stm32f4xx_hal_rcc.o [1]
HAL_RCC_GetClockConfig  0x08008e99    0x36  Code  Gb  stm32f4xx_hal_rcc.o [1]
HAL_RCC_GetHCLKFreq     0x08008e6f     0x6  Code  Gb  stm32f4xx_hal_rcc.o [1]
HAL_RCC_GetPCLK1Freq    0x08008e75    0x10  Code  Gb  stm32f4xx_hal_rcc.o [1]
HAL_RCC_GetPCLK2Freq    0x08008e85     0xe  Code  Gb  stm32f4xx_hal_rcc.o [1]
HAL_RCC_OscConfig       0x0800ce61   0x2f0  Code  Wk  stm32f4xx_hal_rcc.o [1]
HAL_SPI_Init            0x0800c32d    0x78  Code  Gb  stm32f4xx_hal_spi.o [1]
HAL_SPI_MspInit         0x0800b555    0x42  Code  Gb  stm32f4xx_hal_msp.o [1]
HAL_SPI_TransmitReceive
                        0x0800c3b1   0x1a4  Code  Gb  stm32f4xx_hal_spi.o [1]
HAL_SYSTICK_CLKSourceConfig
                        0x0800c6ef    0x1a  Code  Gb  stm32f4xx_hal_cortex.o [1]
HAL_SYSTICK_Config      0x0800c6c7    0x28  Code  Gb  stm32f4xx_hal_cortex.o [1]
HAL_TIMEx_BreakCallback
                        0x0800c283     0x2  Code  Wk  stm32f4xx_hal_tim_ex.o [1]
HAL_TIMEx_CommutationCallback
                        0x0800c287     0x2  Code  Wk  stm32f4xx_hal_tim_ex.o [1]
HAL_TIMEx_MasterConfigSynchronization
                        0x080099fd    0x4a  Code  Gb  stm32f4xx_hal_tim_ex.o [1]
HAL_TIM_Base_Init       0x0800939d    0x1a  Code  Gb  stm32f4xx_hal_tim.o [1]
HAL_TIM_Base_MspInit    0x0800554d    0x40  Code  Gb  LF_PWM_Driver.o [1]
HAL_TIM_Base_Start_IT   0x080093b7    0x16  Code  Gb  stm32f4xx_hal_tim.o [1]
HAL_TIM_ConfigClockSource
                        0x080096e1    0xac  Code  Gb  stm32f4xx_hal_tim.o [1]
HAL_TIM_IRQHandler      0x080094b1   0x142  Code  Gb  stm32f4xx_hal_tim.o [1]
HAL_TIM_MspPostInit     0x0800558d    0x48  Code  Gb  LF_PWM_Driver.o [1]
HAL_TIM_PWM_ConfigChannel
                        0x080095f9    0xc0  Code  Gb  stm32f4xx_hal_tim.o [1]
HAL_TIM_PWM_Init        0x080093e1    0x1a  Code  Gb  stm32f4xx_hal_tim.o [1]
HAL_TIM_PWM_Start       0x080093fb     0x2  Code  Gb  stm32f4xx_hal_tim.o [1]
HAL_TIM_PWM_Stop        0x08009427    0x24  Code  Gb  stm32f4xx_hal_tim.o [1]
HAL_TIM_PeriodElapsedCallback
                        0x08009d67     0xe  Code  Gb  main.o [1]
HAL_UART_Init           0x08008f41    0x1e  Code  Gb  stm32f4xx_hal_uart.o [1]
HAL_UART_MspInit        0x0800b665    0x72  Code  Gb  stm32f4xx_hal_msp.o [1]
HAL_UART_Receive_DMA    0x0800906b    0x92  Code  Gb  stm32f4xx_hal_uart.o [1]
HAL_UART_RxCpltCallback
                        0x0800be91     0xc  Code  Gb  LF__NetworkManagerThread.o [1]
HAL_UART_Transmit       0x08008fb9    0xaa  Code  Gb  stm32f4xx_hal_uart.o [1]
HardFault_Handler       0x0800f57b     0x2  Code  Gb  stm32f4xx_it.o [1]
I2C_IsAcknowledgeFailed
                        0x08007305    0x28  Code  Lc  stm32f4xx_hal_i2c.o [1]
I2C_MasterRequestRead   0x08007055    0xb2  Code  Lc  stm32f4xx_hal_i2c.o [1]
I2C_MasterRequestWrite  0x08006fcd    0x7a  Code  Lc  stm32f4xx_hal_i2c.o [1]
I2C_WaitOnBTFFlagUntilTimeout
                        0x08007257    0x34  Code  Lc  stm32f4xx_hal_i2c.o [1]
I2C_WaitOnFlagUntilTimeout
                        0x08007135    0x6c  Code  Lc  stm32f4xx_hal_i2c.o [1]
I2C_WaitOnMasterAddressFlagUntilTimeout
                        0x080071a1    0x82  Code  Lc  stm32f4xx_hal_i2c.o [1]
I2C_WaitOnRXNEFlagUntilTimeout
                        0x080072a5    0x52  Code  Lc  stm32f4xx_hal_i2c.o [1]
I2C_WaitOnTXEFlagUntilTimeout
                        0x08007223    0x34  Code  Lc  stm32f4xx_hal_i2c.o [1]
Inflation_Timer         0x20002574    0x2c  Data  Gb  LF__EventThread.o [1]
Init_Sequence           0x08004909   0x168  Code  Lc  LF__EventThread.o [1]
LED_state               0x200026cc    0x60  Data  Gb  LF__EventThread.o [1]
LF_CloseFile            0x08005437     0x4  Code  Gb  LF__Utilities.o [1]
LF_GPIO_DisableAnalogSupply
                        0x08004e77     0x2  Code  Gb  LF_GPIO_Driver.o [1]
LF_GPIO_DisableBoost    0x08004e67     0x2  Code  Gb  LF_GPIO_Driver.o [1]
LF_GPIO_EnableAnalogSupply
                        0x08004e73     0x4  Code  Gb  LF_GPIO_Driver.o [1]
LF_GPIO_EnableBoost     0x08004e63     0x4  Code  Gb  LF_GPIO_Driver.o [1]
LF_GPIO_Init            0x08004d3d    0xf6  Code  Gb  LF_GPIO_Driver.o [1]
LF_GPIO_ReadModeSwitch  0x08004e81    0x54  Code  Gb  LF_GPIO_Driver.o [1]
LF_GPIO_StartSwitch     0x08004ed5    0x18  Code  Gb  LF_GPIO_Driver.o [1]
LF_GetFileIndex         0x080052b3     0x6  Code  Gb  LF__Utilities.o [1]
LF_GetLogFileName       0x080052b9    0x1a  Code  Gb  LF__Utilities.o [1]
LF_LCD_Control          0x08005061    0x1e  Code  Gb  LF_LCD_Driver.o [1]
LF_LED_Control          0x0800577d    0xf4  Code  Gb  LF__LED_Driver.o [1]
LF_OpenAppendFileAndBLE
                        0x080052d3    0x30  Code  Gb  LF__Utilities.o [1]
LF_OpenLifeFile         0x08005319    0xfa  Code  Gb  LF__Utilities.o [1]
LF_SendToBluetooth      0x08005499    0x1a  Code  Gb  LF__Utilities.o [1]
LF__ADS115__ReadBattVoltage
                        0x08005165    0xe6  Code  Gb  LF__ADS1115_Driver.o [1]
LF__ADS115__ReadPressure
                        0x080050f9    0x6c  Code  Gb  LF__ADS1115_Driver.o [1]
LF__ST7036__Clear       0x08004f01     0x6  Code  Gb  LF_LCD_Driver.o [1]
LF__ST7036__DisableBacklight
                        0x0800503f     0x2  Code  Gb  LF_LCD_Driver.o [1]
LF__ST7036__EnableBacklight
                        0x0800503b     0x4  Code  Gb  LF_LCD_Driver.o [1]
LF__ST7036__InitLCD     0x08004f65    0x74  Code  Gb  LF_LCD_Driver.o [1]
LF__ST7036__LCDclear    0x08005029    0x12  Code  Gb  LF_LCD_Driver.o [1]
LF__ST7036__LCDcommand  0x08004ffb     0x4  Code  Gb  LF_LCD_Driver.o [1]
LF__ST7036__LCDwrite    0x08004fff    0x2a  Code  Gb  LF_LCD_Driver.o [1]
LF__ST7036__SetCursor   0x08004f17    0x1a  Code  Gb  LF_LCD_Driver.o [1]
LF__SendMailToEventThread
                        0x08009d57    0x10  Code  Gb  main.o [1]
LedFlasher_Timer        0x20002548    0x2c  Data  Gb  LF__EventThread.o [1]
LfnBuf                  0x20013384   0x200  Data  Lc  ff.o [1]
LfnOfs                  0x08007e54    0x10  Data  Lc  ff.o [1]
LoadInt                 0x0800a183    0x7a  Code  Lc  xprintffull.o [3]
LogFileName             0x20002508    0x14  Data  Gb  LF__EventThread.o [1]
LogfileName             0x200029dc    0x14  Data  Gb  LF__Utilities.o [1]
MAP                     0x20000058     0x4  Data  Gb  LF__EventThread.o [1]
MAP_amp                 0x2000005c     0x4  Data  Gb  LF__EventThread.o [1]
MAP_index               0x20000020     0x4  Data  Gb  LF__EventThread.o [1]
MX_FATFS_Init           0x0800b7f1    0x10  Code  Gb  fatfs.o [1]
MemManage_Handler       0x0800f57d     0x2  Code  Gb  stm32f4xx_it.o [1]
NIBP                    0x08002dc9    0x7e  Code  Gb  LF__EventThread.o [1]
NMI_Handler             0x0800f579     0x2  Code  Gb  stm32f4xx_it.o [1]
NVIC_SetPriority        0x0800c641    0x1e  Code  Lc  stm32f4xx_hal_cortex.o [1]
NVIC_SystemReset        0x08000195    0x1e  Code  Lc  LF__EventThread.o [1]
NetworkManagerThread    0x200131d4    0xb4  Data  Gb  main.o [1]
NetworkManagerThread_entry
                        0x0800be75    0x1c  Code  Gb  LF__NetworkManagerThread.o [1]
Parse_Incoming_Command  0x0800bea9    0x2a  Code  Gb  LF__NetworkManagerThread.o [1]
PendSV_Handler          0x0800d85f          Code  Gb  tx_thread_schedule.o [7]
ProcessInputThread      0x20013120    0xb4  Data  Gb  main.o [1]
ProcessInputThread_entry
                        0x0800f191    0x7c  Code  Gb  LF__ProcessInputThread.o [1]
Process_StartAbortSwitchState::startState
                        0x20013bc8     0x1  Data  Lc  LF__ProcessInputThread.o [1]
PumpPwm_UpdateDutyCycle
                        0x080056dd     0x8  Code  Gb  LF_PWM_Driver.o [1]
PumpPwm__Init           0x080055d5    0x58  Code  Gb  LF_PWM_Driver.o [1]
PumpPwm__Start          0x080056ed     0x8  Code  Gb  LF_PWM_Driver.o [1]
PumpPwm__Stop           0x080056fd     0x8  Code  Gb  LF_PWM_Driver.o [1]
RIC_deflation           0x20000040     0x4  Data  Gb  LF__EventThread.o [1]
RIC_inflation           0x2000003c     0x4  Data  Gb  LF__EventThread.o [1]
RIC_report              0x080032d5   0x126  Code  Gb  LF__EventThread.o [1]
RIC_shutdown            0x08001513    0x94  Code  Gb  LF__EventThread.o [1]
Region$$Table$$Base     0x0800f6e0           --   Gb  - Linker created -
Region$$Table$$Limit    0x0800f708           --   Gb  - Linker created -
SP10                    0x08002061   0x11e  Code  Gb  LF__EventThread.o [1]
SPI_CheckFlag_BSY       0x0800c61d    0x1a  Code  Lc  stm32f4xx_hal_spi.o [1]
SPI_Timer_On            0x0800e5f5    0x12  Code  Gb  user_diskio_spi.o [1]
SPI_Timer_Status        0x0800e607    0x18  Code  Gb  user_diskio_spi.o [1]
SPI_WaitFlagStateUntilTimeout
                        0x0800c591    0x8c  Code  Lc  stm32f4xx_hal_spi.o [1]
SVC_Handler             0x0800f583     0x2  Code  Gb  stm32f4xx_it.o [1]
Separator               0x200026a4    0x28  Data  Gb  LF__EventThread.o [1]
Stat                    0x20002a98     0x1  Data  Lc  user_diskio_spi.o [1]
Status                  0x20013b25     0x1  Data  Gb  LF__ADS1115_Driver.o [1]
StdFixed__Algorithm     0x08000bfd   0x236  Code  Gb  LF__EventThread.o [1]
StdRIC__Algorithm       0x08000675   0x40c  Code  Gb  LF__EventThread.o [1]
SwitchMode              0x20013b20     0x4  Data  Gb  LF_GPIO_Driver.o [1]
SwitchModeResult        0x20013b24     0x1  Data  Gb  LF_GPIO_Driver.o [1]
SysTick_Handler         0x0800d78b          Code  Gb  tx_initialize_low_level.o [7]
SystemClock_Config      0x08009cad    0xaa  Code  Gb  main.o [1]
SystemCoreClock         0x200029fc     0x4  Data  Gb  system_stm32f4xx.o [1]
SystemInit              0x0800f519    0x3a  Code  Gb  system_stm32f4xx.o [1]
TIM1_UP_TIM10_IRQHandler
                        0x0800f5b7     0x6  Code  Gb  stm32f4xx_it.o [1]
TIM_Base_SetConfig      0x080097b5    0x72  Code  Gb  stm32f4xx_hal_tim.o [1]
TIM_CCxChannelCmd       0x0800987b    0x14  Code  Gb  stm32f4xx_hal_tim.o [1]
TIM_ETR_SetConfig       0x080099e7    0x14  Code  Lc  stm32f4xx_hal_tim.o [1]
TIM_ITRx_SetConfig      0x080099d7    0x10  Code  Lc  stm32f4xx_hal_tim.o [1]
TIM_OC1_SetConfig       0x0800988f    0x44  Code  Lc  stm32f4xx_hal_tim.o [1]
TIM_OC2_SetConfig       0x08009829    0x52  Code  Gb  stm32f4xx_hal_tim.o [1]
TIM_OC3_SetConfig       0x080098d3    0x4a  Code  Lc  stm32f4xx_hal_tim.o [1]
TIM_OC4_SetConfig       0x08009929    0x40  Code  Lc  stm32f4xx_hal_tim.o [1]
TIM_TI1_ConfigInputStage
                        0x08009991    0x1c  Code  Lc  stm32f4xx_hal_tim.o [1]
TIM_TI2_ConfigInputStage
                        0x080099b3    0x24  Code  Lc  stm32f4xx_hal_tim.o [1]
UART_DMAError           0x0800913d    0x4a  Code  Lc  stm32f4xx_hal_uart.o [1]
UART_DMAReceiveCplt     0x080090fd    0x38  Code  Lc  stm32f4xx_hal_uart.o [1]
UART_DMARxHalfCplt      0x08009135     0x6  Code  Lc  stm32f4xx_hal_uart.o [1]
UART_EndRxTransfer      0x080091fd    0x1c  Code  Lc  stm32f4xx_hal_uart.o [1]
UART_EndTxTransfer      0x080091eb    0x12  Code  Lc  stm32f4xx_hal_uart.o [1]
UART_SetConfig          0x08009219   0x13a  Code  Lc  stm32f4xx_hal_uart.o [1]
UART_WaitOnFlagUntilTimeout
                        0x08009187    0x56  Code  Lc  stm32f4xx_hal_uart.o [1]
USERPath                0x20013b14     0x4  Data  Gb  fatfs.o [1]
USER_Driver             0x20002a00    0x14  Data  Gb  user_diskio.o [1]
USER_SPI_initialize     0x0800e7a3   0x112  Code  Gb  user_diskio_spi.o [1]
USER_SPI_ioctl          0x0800e9bd   0x186  Code  Gb  user_diskio_spi.o [1]
USER_SPI_read           0x0800e8c1    0x66  Code  Gb  user_diskio_spi.o [1]
USER_SPI_status         0x0800e8b5     0xc  Code  Gb  user_diskio_spi.o [1]
USER_SPI_write          0x0800e92f    0x8e  Code  Gb  user_diskio_spi.o [1]
USER_initialize         0x0800f771     0x4  Code  Gb  user_diskio.o [1]
USER_ioctl              0x0800f781     0x4  Code  Gb  user_diskio.o [1]
USER_read               0x0800f779     0x4  Code  Gb  user_diskio.o [1]
USER_status             0x0800f775     0x4  Code  Gb  user_diskio.o [1]
USER_write              0x0800f77d     0x4  Code  Gb  user_diskio.o [1]
UsageFault_Handler      0x0800f581     0x2  Code  Gb  stm32f4xx_it.o [1]
ValvePwm_UpdateDutyCycle
                        0x080056e5     0x8  Code  Gb  LF_PWM_Driver.o [1]
ValvePwm__Init          0x0800562d    0x5c  Code  Gb  LF_PWM_Driver.o [1]
ValvePwm__Start         0x080056f5     0x8  Code  Gb  LF_PWM_Driver.o [1]
ValvePwm__Stop          0x08005705     0x8  Code  Gb  LF_PWM_Driver.o [1]
Write_Instruction       0x08004f43    0x16  Code  Lc  LF_LCD_Driver.o [1]
_Encoding_8859_1_Mbrlen
                        0x08005969     0x2  Code  Gb  xencoding_8859_1.o [3]
_Encoding_8859_1_Wctomb
                        0x08005957    0x12  Code  Gb  xencoding_8859_1.o [3]
_Error_Handler          0x08009db1     0x2  Code  Gb  main.o [1]
_GenldFull              0x0800ac05   0x274  Code  Lc  xprintffull.o [3]
_LdtobFull              0x0800a7d9   0x3fe  Code  Lc  xprintffull.o [3]
_LitobFull              0x0800a681   0x112  Code  Lc  xprintffull.o [3]
_Locale_lconv           0x20002a18    0x38  Data  Lc  xlocale_c.o [3]
_PrintfFull             0x08009f95   0x1d6  Code  Gb  xprintffull.o [3]
_PutcharsFull           0x0800ae79    0x2e  Code  Lc  xprintffull.o [3]
_PutfldFull             0x0800a1fd   0x2d0  Code  Lc  xprintffull.o [3]
_PutstrFull             0x0800a5c3    0xbe  Code  Lc  xprintffull.o [3]
_PuttxtFull             0x0800a4cd    0xf6  Code  Lc  xprintffull.o [3]
_SProut                 0x08005a0b     0xa  Code  Gb  xsprout.o [3]
__aeabi_cdcmpeq         0x0800639d          Code  Gb  DblCmpEq.o [4]
__aeabi_cdcmple         0x080059dd          Code  Gb  DblCmpLe.o [4]
__aeabi_cdrcmple        0x0800636d          Code  Gb  DblCmpGe.o [4]
__aeabi_d2f             0x08006161          Code  Gb  DblToFlt.o [4]
__aeabi_d2iz            0x08005c65          Code  Gb  DblToS32.o [4]
__aeabi_d2uiz           0x0800d49d          Code  Gb  DblToU32.o [4]
__aeabi_dadd            0x08005da1          Code  Gb  DblAdd.o [4]
__aeabi_ddiv            0x08005f19          Code  Gb  DblDiv.o [4]
__aeabi_dmul            0x080061c9          Code  Gb  DblMul.o [4]
__aeabi_dsub            0x08005cbd          Code  Gb  DblSub.o [4]
__aeabi_f2d             0x08005995          Code  Gb  FltToDbl.o [4]
__aeabi_i2d             0x0800732d          Code  Gb  S32ToDbl.o [4]
__aeabi_ldiv0           0x0800d741          Code  Gb  I64DivZer.o [5]
__aeabi_memclr4         0x08005c5d          Code  Gb  ABImemclr4.o [5]
__aeabi_memcpy          0x080058b1          Code  Gb  ABImemcpy.o [5]
__aeabi_memcpy4         0x080058d1          Code  Gb  ABImemcpy.o [5]
__aeabi_memcpy8         0x080058d1          Code  Gb  ABImemcpy.o [5]
__aeabi_memset          0x0800b80d          Code  Gb  ABImemset.o [5]
__aeabi_ui2d            0x08005ca1          Code  Gb  U32ToDbl.o [4]
__aeabi_uldivmod        0x0800b8f1          Code  Gb  I64DivMod.o [5]
__cmain                 0x0800f729          Code  Gb  cmain.o [5]
__exit                  0x0800e459    0x14  Code  Gb  exit.o [6]
__iar_Atan64            0x0800d4f9   0x170  Code  Gb  iar_Atan64.o [4]
__iar_Fail_s            0x0800d24d    0x1c  Code  Gb  xfail_s.o [3]
__iar_Mbcurmax          0x0800d2e5     0xa  Code  Gb  xmbcurmax.o [3]
__iar_Memchr            0x0800d28d          Code  Gb  memchr.o [5]
__iar_Memset            0x0800b80d          Code  Gb  ABImemset.o [5]
__iar_Memset4_word      0x0800b055          Code  Gb  ABImemset48.o [5]
__iar_Memset8_word      0x0800b055          Code  Gb  ABImemset48.o [5]
__iar_Memset_word       0x0800b815          Code  Gb  ABImemset.o [5]
__iar_Strchr            0x0800d235          Code  Gb  strchr.o [5]
__iar_atan64            0x0800b089    0xac  Code  Gb  atan64.o [4]
__iar_dadd              0x08005ccd          Code  Gb  DblSub.o [4]
__iar_data_init3        0x0800f695    0x28  Code  Gb  data_init.o [5]
__iar_dsub              0x08005db1          Code  Gb  DblAdd.o [4]
__iar_dsubStart         0x08005dc3          Code  Gb  DblAdd.o [4]
__iar_frexp             0x0800d2fd          Code  Gb  frexp.o [4]
__iar_frexpl            0x0800d2fd          Code  Gb  frexp.o [4]
__iar_globLocale        0x20002a50    0x48  Data  Lc  xlocale_c.o [3]
__iar_global_Locale     0x0800d1c1     0x4  Code  Gb  xlocale_c.o [3]
__iar_init_vfp          0x0800f6bd          Code  Gb  fpinit_M.o [4]
__iar_ldexp64           0x0800d361          Code  Gb  ldexp.o [4]
__iar_lz77_init_single3
                        0x0800507f    0x7a  Code  Gb  lz77_init_single.o [5]
__iar_program_start     0x0800f795          Code  Gb  cstartup_M.o [5]
__iar_scalbln64         0x0800d361          Code  Gb  ldexp.o [4]
__iar_scalbn64          0x0800d361          Code  Gb  ldexp.o [4]
__iar_softfp___iar_frexp64
                        0x0800d2f1          Code  Gb  frexp.o [4]
__iar_softfp_frexp      0x0800d2f1          Code  Gb  frexp.o [4]
__iar_softfp_frexpl     0x0800d2f1          Code  Gb  frexp.o [4]
__iar_sqrt64            0x080063cd          Code  Gb  sqrt.o [4]
__iar_systems$$module {Abs}
                        0x00000001          Data  Gb  command line/config [2]
__iar_vfp___iar_sqrt64  0x080063bd          Code  Gb  sqrt.o [4]
__iar_vfp_atan          0x080064c5     0xc  Code  Gb  math_wrappers64.o [4]
__iar_vfp_sqrt          0x080063bd          Code  Gb  sqrt.o [4]
__iar_vfp_sqrtl         0x080063bd          Code  Gb  sqrt.o [4]
__iar_zero_init3        0x0800f619    0x40  Code  Gb  zero_init3.o [5]
__low_level_init        0x0800f747     0x4  Code  Gb  low_level_init.o [3]
__tx_PendSVHandler      0x0800d85f          Code  Gb  tx_thread_schedule.o [7]
__tx_SysTickHandler     0x0800d78b          Code  Gb  tx_initialize_low_level.o [7]
__tx_free_memory_start  0x20013fd0          Data  Gb  tx_initialize_low_level.o [7]
__vector_table          0x08000000          Data  Gb  startup_stm32f401xe.o [1]
_call_main              0x0800f735          Code  Gb  cmain.o [5]
_exit                   0x0800f751          Code  Gb  cexit.o [5]
_gLocale_mblen          0x0800d221     0x4  Code  Gb  xlocale_c.o [3]
_gLocale_mblenInt       0x0800d1e9    0x34  Code  Gb  xlocale_c.o [3]
_gLocale_wctomb         0x0800d225     0x4  Code  Gb  xlocale_c.o [3]
_gLocale_wctombInt      0x0800d21d     0x4  Code  Gb  xlocale_c.o [3]
_main                   0x0800f743          Code  Gb  cmain.o [5]
_tx_block_allocate      0x0800dd19    0xb0  Code  Gb  tx_block_allocate.o [7]
_tx_block_pool_cleanup  0x0800f38d    0x88  Code  Gb  tx_block_pool_cleanup.o [7]
_tx_block_pool_create   0x0800dc61    0xb8  Code  Gb  tx_block_pool_create.o [7]
_tx_block_pool_created_count
                        0x20013bb4     0x4  Data  Gb  tx_initialize_high_level.o [7]
_tx_block_pool_created_ptr
                        0x20013bb0     0x4  Data  Gb  tx_initialize_high_level.o [7]
_tx_block_release       0x0800ddc9    0x6c  Code  Gb  tx_block_release.o [7]
_tx_build_options       0x20013b54     0x4  Data  Gb  tx_thread_initialize.o [7]
_tx_byte_allocate       0x0800de35    0xf8  Code  Gb  tx_byte_allocate.o [7]
_tx_byte_pool_cleanup   0x0800f415    0x88  Code  Gb  tx_byte_pool_cleanup.o [7]
_tx_byte_pool_create    0x0800d905    0x90  Code  Gb  tx_byte_pool_create.o [7]
_tx_byte_pool_created_count
                        0x20013bbc     0x4  Data  Gb  tx_initialize_high_level.o [7]
_tx_byte_pool_created_ptr
                        0x20013bb8     0x4  Data  Gb  tx_initialize_high_level.o [7]
_tx_byte_pool_search    0x0800e349   0x110  Code  Gb  tx_byte_pool_search.o [7]
_tx_event_flags_created_count
                        0x20013ba4     0x4  Data  Gb  tx_initialize_high_level.o [7]
_tx_event_flags_created_ptr
                        0x20013ba0     0x4  Data  Gb  tx_initialize_high_level.o [7]
_tx_initialize_high_level
                        0x0800d7b9    0x84  Code  Gb  tx_initialize_high_level.o [7]
_tx_initialize_kernel_enter
                        0x0800c721    0x50  Code  Gb  tx_initialize_kernel_enter.o [7]
_tx_initialize_low_level
                        0x0800d745          Code  Gb  tx_initialize_low_level.o [7]
_tx_initialize_unused_memory
                        0x20013bc0     0x4  Data  Gb  tx_initialize_high_level.o [7]
_tx_mutex_create        0x0800dbf5    0x6c  Code  Gb  tx_mutex_create.o [7]
_tx_mutex_created_count
                        0x20013bac     0x4  Data  Gb  tx_initialize_high_level.o [7]
_tx_mutex_created_ptr   0x20013ba8     0x4  Data  Gb  tx_initialize_high_level.o [7]
_tx_mutex_prioritize    0x0800ed81    0xb0  Code  Gb  tx_mutex_prioritize.o [7]
_tx_mutex_priority_change
                        0x0800ee31    0xf8  Code  Gb  tx_mutex_priority_change.o [7]
_tx_mutex_put           0x0800eb5d   0x224  Code  Gb  tx_mutex_put.o [7]
_tx_mutex_thread_release
                        0x0800f5cd    0x46  Code  Gb  tx_mutex_cleanup.o [7]
_tx_queue_cleanup       0x0800f2f5    0x98  Code  Gb  tx_queue_cleanup.o [7]
_tx_queue_create        0x0800db11    0x84  Code  Gb  tx_queue_create.o [7]
_tx_queue_created_count
                        0x20013b9c     0x4  Data  Gb  tx_initialize_high_level.o [7]
_tx_queue_created_ptr   0x20013b98     0x4  Data  Gb  tx_initialize_high_level.o [7]
_tx_queue_receive       0x080066bd   0x1f4  Code  Gb  tx_queue_receive.o [7]
_tx_queue_send          0x0800df2d   0x164  Code  Gb  tx_queue_send.o [7]
_tx_semaphore_create    0x0800db95    0x60  Code  Gb  tx_semaphore_create.o [7]
_tx_semaphore_created_count
                        0x20013b94     0x4  Data  Gb  tx_initialize_high_level.o [7]
_tx_semaphore_created_ptr
                        0x20013b90     0x4  Data  Gb  tx_initialize_high_level.o [7]
_tx_thread_application_stack_error_handler
                        0x20013b58     0x4  Data  Gb  tx_thread_initialize.o [7]
_tx_thread_create       0x0800d995   0x17c  Code  Gb  tx_thread_create.o [7]
_tx_thread_created_count
                        0x20013b3c     0x4  Data  Gb  tx_thread_initialize.o [7]
_tx_thread_created_ptr  0x20013b38     0x4  Data  Gb  tx_thread_initialize.o [7]
_tx_thread_current_ptr  0x20013b30     0x4  Data  Gb  tx_thread_initialize.o [7]
_tx_thread_execute_ptr  0x20013b34     0x4  Data  Gb  tx_thread_initialize.o [7]
_tx_thread_highest_priority
                        0x20013b48     0x4  Data  Gb  tx_thread_initialize.o [7]
_tx_thread_initialize   0x0800e17d    0x94  Code  Gb  tx_thread_initialize.o [7]
_tx_thread_mutex_release
                        0x20013b50     0x4  Data  Gb  tx_thread_initialize.o [7]
_tx_thread_preempt_disable
                        0x20013b4c     0x4  Data  Gb  tx_thread_initialize.o [7]
_tx_thread_preempted_maps
                        0x20013b44     0x4  Data  Gb  tx_thread_initialize.o [7]
_tx_thread_priority_list
                        0x20013778    0x80  Data  Gb  tx_thread_initialize.o [7]
_tx_thread_priority_maps
                        0x20013b40     0x4  Data  Gb  tx_thread_initialize.o [7]
_tx_thread_schedule     0x0800d83d          Code  Gb  tx_thread_schedule.o [7]
_tx_thread_shell_entry  0x0800f49d    0x7c  Code  Gb  tx_thread_shell_entry.o [7]
_tx_thread_sleep        0x08004ca9    0x94  Code  Gb  tx_thread_sleep.o [7]
_tx_thread_stack_analyze
                        0x0800b409    0x84  Code  Gb  tx_thread_stack_analyze.o [7]
_tx_thread_stack_build  0x0800e301          Code  Gb  tx_thread_stack_build.o [7]
_tx_thread_stack_error_handler
                        0x0800b3e9    0x20  Code  Gb  tx_thread_stack_error_handler.o [7]
_tx_thread_system_preempt_check
                        0x08009e6d    0x90  Code  Gb  tx_thread_system_preempt_check.o [7]
_tx_thread_system_resume
                        0x0800b151   0x272  Code  Gb  tx_thread_system_resume.o [7]
_tx_thread_system_return_inline
                        0x080068b1    0x1c  Code  Lc  tx_thread_system_suspend.o [7]
_tx_thread_system_return_inline
                        0x08009e51    0x1c  Code  Lc  tx_thread_system_preempt_check.o [7]
_tx_thread_system_return_inline
                        0x0800b135    0x1c  Code  Lc  tx_thread_system_resume.o [7]
_tx_thread_system_stack_ptr
                        0x20013b2c     0x4  Data  Gb  tx_thread_initialize.o [7]
_tx_thread_system_state
                        0x20002a14     0x4  Data  Gb  tx_thread_initialize.o [7]
_tx_thread_system_suspend
                        0x080068cd   0x27c  Code  Gb  tx_thread_system_suspend.o [7]
_tx_thread_time_slice   0x0800e495   0x160  Code  Gb  tx_thread_time_slice.o [7]
_tx_thread_timeout      0x0800f659    0x3c  Code  Gb  tx_thread_timeout.o [7]
_tx_thread_wait_abort   0x0800f261    0x94  Code  Gb  tx_thread_wait_abort.o [7]
_tx_timer_activate      0x08009e25    0x2a  Code  Gb  tx_timer_activate.o [7]
_tx_timer_create        0x08009f11    0x84  Code  Gb  tx_timer_create.o [7]
_tx_timer_created_count
                        0x20013b78     0x4  Data  Gb  tx_timer_initialize.o [7]
_tx_timer_created_ptr   0x20013b74     0x4  Data  Gb  tx_timer_initialize.o [7]
_tx_timer_current_ptr   0x20013b6c     0x4  Data  Gb  tx_timer_initialize.o [7]
_tx_timer_deactivate    0x0800af2d    0xcc  Code  Gb  tx_timer_deactivate.o [7]
_tx_timer_delete        0x0800aff9    0x5c  Code  Gb  tx_timer_delete.o [7]
_tx_timer_expiration_process
                        0x0800e46d    0x28  Code  Gb  tx_timer_expiration_process.o [7]
_tx_timer_expired       0x20013b70     0x4  Data  Gb  tx_timer_initialize.o [7]
_tx_timer_expired_time_slice
                        0x20013b60     0x4  Data  Gb  tx_timer_initialize.o [7]
_tx_timer_expired_timer_ptr
                        0x20013b7c     0x4  Data  Gb  tx_timer_initialize.o [7]
_tx_timer_initialize    0x0800e211    0xf0  Code  Gb  tx_timer_initialize.o [7]
_tx_timer_interrupt     0x0800e099          Code  Gb  tx_timer_interrupt.o [7]
_tx_timer_list          0x200137f8    0x80  Data  Gb  tx_timer_initialize.o [7]
_tx_timer_list_end      0x20013b68     0x4  Data  Gb  tx_timer_initialize.o [7]
_tx_timer_list_start    0x20013b64     0x4  Data  Gb  tx_timer_initialize.o [7]
_tx_timer_priority      0x20013b88     0x4  Data  Gb  tx_timer_initialize.o [7]
_tx_timer_stack_size    0x20013b84     0x4  Data  Gb  tx_timer_initialize.o [7]
_tx_timer_stack_start   0x20013b80     0x4  Data  Gb  tx_timer_initialize.o [7]
_tx_timer_system_activate
                        0x0800b48d    0x68  Code  Gb  tx_timer_system_activate.o [7]
_tx_timer_system_clock  0x20013b5c     0x4  Data  Gb  tx_timer_initialize.o [7]
_tx_timer_system_deactivate
                        0x0800d4c5    0x2e  Code  Gb  tx_timer_system_deactivate.o [7]
_tx_timer_thread        0x200136c4    0xb4  Data  Gb  tx_timer_initialize.o [7]
_tx_timer_thread_entry  0x0800ef29   0x13c  Code  Gb  tx_timer_thread_entry.o [7]
_tx_timer_thread_stack_area
                        0x2001294c   0x400  Data  Gb  tx_timer_initialize.o [7]
_tx_timer_time_slice    0x20013b8c     0x4  Data  Gb  tx_timer_initialize.o [7]
_txe_block_allocate     0x0800cd3d    0x60  Code  Gb  txe_block_allocate.o [7]
_txe_block_pool_create  0x0800cc49    0xf4  Code  Gb  txe_block_pool_create.o [7]
_txe_block_release      0x0800cd9d    0x2c  Code  Gb  txe_block_release.o [7]
_txe_byte_allocate      0x0800cdc9    0x98  Code  Gb  txe_byte_allocate.o [7]
_txe_byte_pool_create   0x0800c771    0xe0  Code  Gb  txe_byte_pool_create.o [7]
_txe_mutex_create       0x0800cb75    0xd4  Code  Gb  txe_mutex_create.o [7]
_txe_queue_create       0x0800c9b1    0xf8  Code  Gb  txe_queue_create.o [7]
_txe_queue_receive      0x08004c49    0x60  Code  Gb  txe_queue_receive.o [7]
_txe_queue_send         0x0800d151    0x60  Code  Gb  txe_queue_send.o [7]
_txe_semaphore_create   0x0800caa9    0xcc  Code  Gb  txe_semaphore_create.o [7]
_txe_thread_create      0x0800c851   0x160  Code  Gb  txe_thread_create.o [7]
_txe_thread_wait_abort  0x0800f241    0x20  Code  Gb  txe_thread_wait_abort.o [7]
_txe_timer_activate     0x08005975    0x20  Code  Gb  txe_timer_activate.o [7]
_txe_timer_create       0x08005a15    0xf0  Code  Gb  txe_timer_create.o [7]
_txe_timer_deactivate   0x08005be9    0x20  Code  Gb  txe_timer_deactivate.o [7]
_txe_timer_delete       0x08005c09    0x54  Code  Gb  txe_timer_delete.o [7]
a                       0x0800d6c0    0x40  Data  Lc  iar_Atan64.o [4]
abort                   0x0800e091     0x6  Code  Gb  abort.o [3]
acf                     0x200114fc   0xe10  Data  Gb  LF__EventThread.o [1]
acquire                 0x08004891    0x72  Code  Gb  LF__EventThread.o [1]
atan                    0x0800b089    0xac  Code  Gb  atan64.o [4]
atanl                   0x0800b089    0xac  Code  Gb  atan64.o [4]
avg_pressure            0x20000054     0x4  Data  Gb  LF__EventThread.o [1]
batt_level              0x20000038     0x4  Data  Gb  LF__EventThread.o [1]
binary_chop             0x08001ef5   0x110  Code  Gb  LF__EventThread.o [1]
bleed_to_pressure       0x080012bd    0x4a  Code  Gb  LF__EventThread.o [1]
block_pool_0            0x2001334c    0x30  Data  Gb  main.o [1]
butterlp                0x080045b5    0x66  Code  Gb  LF__EventThread.o [1]
butterlp::a             0x20002738     0xc  Data  Lc  LF__EventThread.o [1]
butterlp::b             0x20002744     0xc  Data  Lc  LF__EventThread.o [1]
butterlp::x             0x20002750     0x8  Data  Lc  LF__EventThread.o [1]
butterlp::y             0x20002758     0x8  Data  Lc  LF__EventThread.o [1]
byte_pool_0             0x20013318    0x34  Data  Gb  main.o [1]
calc_dias_deflate       0x08003d0d   0x34c  Code  Gb  LF__EventThread.o [1]
calc_dias_inflate       0x080038dd   0x284  Code  Gb  LF__EventThread.o [1]
calc_heart_rate         0x08001605   0x182  Code  Gb  LF__EventThread.o [1]
calc_sys_deflate        0x080029c1   0x30c  Code  Gb  LF__EventThread.o [1]
calc_sys_dither         0x08001bb9   0x26c  Code  Gb  LF__EventThread.o [1]
calc_sys_inflate        0x08004229   0x28c  Code  Gb  LF__EventThread.o [1]
check_for_MAP           0x08003869    0x46  Code  Gb  LF__EventThread.o [1]
check_for_MAP_deflate   0x08002805   0x15a  Code  Gb  LF__EventThread.o [1]
check_fs                0x08008197    0x6e  Code  Lc  ff.o [1]
chk_chr                 0x0800739f    0x10  Code  Lc  ff.o [1]
chk_lock                0x080073af    0x58  Code  Lc  ff.o [1]
clear_lock              0x080074b3    0x1a  Code  Lc  ff.o [1]
clmt_clust              0x08007899    0x28  Code  Lc  ff.o [1]
clust2sect              0x080075d5    0x1a  Code  Lc  ff.o [1]
commandClearLCD         0x0800bef5    0x14  Code  Lc  LF__NetworkManagerThread.o [1]
commandDisableAnalog    0x0800bfdd    0x14  Code  Lc  LF__NetworkManagerThread.o [1]
commandDisableBacklight
                        0x0800bf09     0x8  Code  Lc  LF__NetworkManagerThread.o [1]
commandEnableAnalog     0x0800bff1    0x14  Code  Lc  LF__NetworkManagerThread.o [1]
commandEnableBacklight  0x0800bf11     0x8  Code  Lc  LF__NetworkManagerThread.o [1]
commandGetDeviceId      0x0800c005    0x6c  Code  Lc  LF__NetworkManagerThread.o [1]
commandLCDTest          0x0800bed5    0x20  Code  Lc  LF__NetworkManagerThread.o [1]
commandPumpPWMStep1     0x0800bf7d    0x18  Code  Lc  LF__NetworkManagerThread.o [1]
commandPumpPWMStep2     0x0800bf95    0x18  Code  Lc  LF__NetworkManagerThread.o [1]
commandPumpPWMStep3     0x0800bfad    0x18  Code  Lc  LF__NetworkManagerThread.o [1]
commandPumpPWMStep4     0x0800bfc5    0x18  Code  Lc  LF__NetworkManagerThread.o [1]
commandStartPump        0x0800bf55    0x14  Code  Lc  LF__NetworkManagerThread.o [1]
commandStartValve       0x0800bf2d    0x14  Code  Lc  LF__NetworkManagerThread.o [1]
commandStopPump         0x0800bf69    0x14  Code  Lc  LF__NetworkManagerThread.o [1]
commandStopValve        0x0800bf41    0x14  Code  Lc  LF__NetworkManagerThread.o [1]
compute_tuck_acf        0x08001b31    0x64  Code  Gb  LF__EventThread.o [1]
convCompleted           0x20013b27     0x1  Data  Gb  LF__ProcessInputThread.o [1]
convex_MAP              0x0800227d   0x40a  Code  Gb  LF__EventThread.o [1]
create_chain            0x080077f1    0xa2  Code  Lc  ff.o [1]
create_name             0x08007e71   0x1cc  Code  Lc  ff.o [1]
cycle_num               0x2000002c     0x4  Data  Gb  LF__EventThread.o [1]
data                    0x2000addc  0x2260  Data  Gb  LF__EventThread.o [1]
dataRdy                 0x20013af4     0x1  Data  Lc  LF__NetworkManagerThread.o [1]
date                    0x200025b4    0x14  Data  Gb  LF__EventThread.o [1]
dec_lock                0x0800747f    0x34  Code  Lc  ff.o [1]
deflating               0x20000064     0x4  Data  Gb  LF__EventThread.o [1]
deriv_data              0x20002a9c  0x20d0  Data  Gb  LF__EventThread.o [1]
despiselect             0x0800e65f    0x10  Code  Lc  user_diskio_spi.o [1]
dias_on_deflate         0x20000068     0x4  Data  Gb  LF__EventThread.o [1]
dias_press              0x20000060     0x4  Data  Gb  LF__EventThread.o [1]
dir_find                0x08007b25   0x150  Code  Lc  ff.o [1]
dir_next                0x0800794b    0xe0  Code  Lc  ff.o [1]
dir_register            0x08007c7d   0x1d2  Code  Lc  ff.o [1]
dir_sdi                 0x080078c1    0x8a  Code  Lc  ff.o [1]
disk                    0x20013b04     0xc  Data  Gb  ff_gen_drv.o [1]
disk_initialize         0x0800b78f    0x1e  Code  Gb  diskio.o [1]
disk_ioctl              0x0800b7d5    0x18  Code  Gb  diskio.o [1]
disk_read               0x0800b7ad     0xc  Code  Gb  diskio.o [1]
disk_status             0x0800b77d    0x12  Code  Gb  diskio.o [1]
disk_write              0x0800b7b9     0xc  Code  Gb  diskio.o [1]
dither                  0x08001347    0xec  Code  Gb  LF__EventThread.o [1]
done_flashing           0x20000044     0x4  Data  Gb  LF__EventThread.o [1]
dptr                    0x20000018     0x4  Data  Gb  LF__EventThread.o [1]
exit                    0x0800f74b     0x4  Code  Gb  exit.o [3]
f_LineCount             0x08005291    0x22  Code  Gb  LF__Utilities.o [1]
f_close                 0x08008a5d    0x28  Code  Gb  ff.o [1]
f_data                  0x20004b6c  0x20d0  Data  Gb  LF__EventThread.o [1]
f_gets                  0x08008c99    0x44  Code  Gb  ff.o [1]
f_lseek                 0x08008a85   0x1d8  Code  Gb  ff.o [1]
f_mount                 0x08008487    0x58  Code  Gb  ff.o [1]
f_open                  0x080084df   0x1f6  Code  Gb  ff.o [1]
f_read                  0x080086ed   0x14a  Code  Gb  ff.o [1]
f_sync                  0x080089cf    0x76  Code  Gb  ff.o [1]
f_write                 0x08008837   0x184  Code  Gb  ff.o [1]
ff_wtoupper             0x08008cdd    0x18  Code  Gb  ff.o [1]
fileIndex               0x20002768     0x4  Data  Gb  LF__Utilities.o [1]
fileString              0x200029a8    0x34  Data  Gb  LF__Utilities.o [1]
filt_data               0x2000d03c  0x2260  Data  Gb  LF__EventThread.o [1]
find_lag_acf_max        0x08001845    0x4a  Code  Gb  LF__EventThread.o [1]
find_volume             0x08008205   0x24e  Code  Lc  ff.o [1]
flashy                  0x080046e5   0x13a  Code  Gb  LF__EventThread.o [1]
flashy::bcounter        0x20002730     0x4  Data  Lc  LF__EventThread.o [1]
flashy::counter         0x2000272c     0x4  Data  Lc  LF__EventThread.o [1]
flashy::mult            0x20002734     0x4  Data  Lc  LF__EventThread.o [1]
follow_path             0x080080d1    0x82  Code  Lc  ff.o [1]
fp                      0x200022d8   0x230  Data  Gb  LF__EventThread.o [1]
fres                    0x20002760     0x1  Data  Gb  LF__Utilities.o [1]
fs                      0x20002774   0x234  Data  Gb  LF__Utilities.o [1]
gCommandTable           0x0800c1d8    0xa0  Data  Gb  LF__NetworkManagerThread.o [1]
gen_numname             0x08007a7d    0x84  Code  Lc  ff.o [1]
get_fat                 0x080075ef    0xaa  Code  Lc  ff.o [1]
get_fattime             0x0800b809     0x4  Code  Gb  fatfs.o [1]
get_ldnumber            0x08008153    0x44  Code  Lc  ff.o [1]
get_osc_amp             0x08003465   0x2a2  Code  Gb  LF__EventThread.o [1]
hadc1                   0x2001399c    0x48  Data  Gb  main.o [1]
hdma_adc1               0x200138dc    0x60  Data  Gb  main.o [1]
hdma_usart2_rx          0x2001393c    0x60  Data  Gb  main.o [1]
hi2c1                   0x200135dc    0x54  Data  Gb  main.o [1]
hi2c2                   0x20013630    0x54  Data  Gb  main.o [1]
hspi2                   0x20013584    0x58  Data  Gb  main.o [1]
htim10                  0x20013a5c    0x3c  Data  Gb  stm32f4xx_hal_timebase_TIM.o [1]
htim2                   0x200139e4    0x3c  Data  Gb  LF_PWM_Driver.o [1]
htim3                   0x20013a20    0x3c  Data  Gb  LF_PWM_Driver.o [1]
huart2                  0x20013684    0x40  Data  Gb  main.o [1]
inc_lock                0x08007407    0x78  Code  Lc  ff.o [1]
int_osc_data            0x20006c3c  0x20d0  Data  Gb  LF__EventThread.o [1]
intervals               0x20012d4c   0x320  Data  Gb  LF__EventThread.o [1]
korot1                  0x20000024     0x4  Data  Gb  LF__EventThread.o [1]
korot2                  0x20000028     0x4  Data  Gb  LF__EventThread.o [1]
korot_string            0x20013ae0    0x14  Data  Gb  LF__EventThread.o [1]
ld_clust                0x08007a31    0x26  Code  Lc  ff.o [1]
ld_dword                0x08007357    0x10  Code  Lc  ff.o [1]
ld_word                 0x08007351     0x6  Code  Lc  ff.o [1]
ldexp                   0x0800d361          Code  Gb  ldexp.o [4]
ldexpl                  0x0800d361          Code  Gb  ldexp.o [4]
line1                   0x20000000    0x14  Data  Gb  LF__EventThread.o [1]
line2                   0x20002690    0x14  Data  Gb  LF__EventThread.o [1]
localeconv              0x0800d229     0x4  Code  Gb  xlocale_c.o [3]
main                    0x08009a49   0x140  Code  Gb  main.o [1]
make_output_string      0x08001ae1    0x50  Code  Gb  LF__EventThread.o [1]
measure_fuzz            0x080037a9    0x48  Code  Gb  LF__EventThread.o [1]
mem_cpy                 0x08007385    0x10  Code  Lc  ff.o [1]
mem_set                 0x08007395     0xa  Code  Lc  ff.o [1]
memchr                  0x0800d28d          Code  Gb  memchr.o [5]
mode_code               0x20000014     0x1  Data  Lc  LF__EventThread.o [1]
model                   0x0800200d    0x48  Code  Gb  LF__EventThread.o [1]
move_window             0x08007513    0x34  Code  Lc  ff.o [1]
mutex_0                 0x200132e4    0x34  Data  Gb  main.o [1]
npeak                   0x2000001c     0x4  Data  Gb  LF__EventThread.o [1]
peak_data               0x2001230c   0x640  Data  Gb  LF__EventThread.o [1]
pressure                0x2000004c     0x4  Data  Gb  LF__EventThread.o [1]
process_mail            0x080001e5   0x1ca  Code  Lc  LF__EventThread.o [1]
pulse                   0x20000048     0x4  Data  Gb  LF__EventThread.o [1]
pump_to_pressure        0x08001261    0x58  Code  Gb  LF__EventThread.o [1]
put_fat                 0x08007699    0xee  Code  Lc  ff.o [1]
rcvr_datablock          0x0800e69b    0x42  Code  Lc  user_diskio_spi.o [1]
remove_chain            0x08007787    0x6a  Code  Lc  ff.o [1]
report                  0x080018b9   0x190  Code  Gb  LF__EventThread.o [1]
retUSER                 0x20013b10     0x1  Data  Gb  fatfs.o [1]
running                 0x20000034     0x4  Data  Gb  LF__EventThread.o [1]
rx_data                 0x20013af8     0xc  Data  Lc  LF__NetworkManagerThread.o [1]
scalbln                 0x0800d361          Code  Gb  ldexp.o [4]
scalblnl                0x0800d361          Code  Gb  ldexp.o [4]
scalbn                  0x0800d361          Code  Gb  ldexp.o [4]
scalbnl                 0x0800d361          Code  Gb  ldexp.o [4]
scale                   0x0800a793    0x46  Code  Lc  xprintffull.o [3]
sec_hand                0x20013bc4     0x4  Data  Lc  xfail_s.o [3]
semaphore_0             0x200132c4    0x20  Data  Gb  main.o [1]
send_cmd                0x0800e727    0x7c  Code  Lc  user_diskio_spi.o [1]
send_i2c                0x08004fe1    0x1a  Code  Gb  LF_LCD_Driver.o [1]
shutdown                0x08003819    0x24  Code  Gb  LF__EventThread.o [1]
spiTimerTickDelay       0x20013b1c     0x4  Data  Gb  user_diskio_spi.o [1]
spiTimerTickStart       0x20013b18     0x4  Data  Gb  user_diskio_spi.o [1]
spiselect               0x0800e66f    0x22  Code  Lc  user_diskio_spi.o [1]
sprintf                 0x08005b5d    0x40  Code  Gb  sprintf.o [3]
sqrt                    0x080063cd          Code  Gb  sqrt.o [4]
sqrtl                   0x080063cd          Code  Gb  sqrt.o [4]
st_clust                0x08007a57    0x26  Code  Lc  ff.o [1]
st_dword                0x08007375    0x10  Code  Lc  ff.o [1]
st_word                 0x0800736d     0x8  Code  Lc  ff.o [1]
startButtonAbort        0x2000006c     0x4  Data  Gb  LF__EventThread.o [1]
step_deflate            0x08002ec5   0x260  Code  Gb  LF__EventThread.o [1]
step_inflate            0x08000ef5   0x25c  Code  Gb  LF__EventThread.o [1]
strcat                  0x08005b05    0x20  Code  Gb  strcat.o [3]
strchr                  0x0800d235          Code  Gb  strchr.o [5]
strcpy                  0x08005b9d          Code  Gb  strcpy.o [5]
string1                 0x20013ab8    0x14  Data  Gb  LF__EventThread.o [1]
string2                 0x20013acc    0x14  Data  Gb  LF__EventThread.o [1]
strlen                  0x08005b25          Code  Gb  strlen.o [5]
strncpy                 0x08008cf5          Code  Gb  strncpy.o [5]
sum_sfn                 0x08007b01    0x1c  Code  Lc  ff.o [1]
sync_fs                 0x08007547    0x82  Code  Lc  ff.o [1]
sync_window             0x080074cd    0x38  Code  Lc  ff.o [1]
sys_press               0x20000050     0x4  Data  Gb  LF__EventThread.o [1]
teflon                  0x0800483f    0x32  Code  Gb  LF__EventThread.o [1]
test_value              0x20013b28     0x4  Data  Gb  LF__EventThread.o [1]
tock                    0x20000030     0x4  Data  Gb  LF__EventThread.o [1]
tockPrevious            0x20000070     0x4  Data  Gb  LF__EventThread.o [1]
tockStuckCount          0x20000074     0x4  Data  Gb  LF__EventThread.o [1]
tock_data               0x2000f29c  0x2260  Data  Gb  LF__EventThread.o [1]
tx_application_define   0x08009b89    0xfa  Code  Gb  main.o [1]
tx_thread_fpu_disable   0x0800d8ff          Code  Gb  tx_thread_schedule.o [7]
tx_thread_fpu_enable    0x0800d8fd          Code  Gb  tx_thread_schedule.o [7]
uid                     0x20002764     0x4  Data  Gb  LF__Utilities.o [1]
unit_RIC_abort          0x08004625    0x7a  Code  Gb  LF__EventThread.o [1]
uwTick                  0x200029f4     0x4  Data  Gb  stm32f4xx_hal.o [1]
uwTickFreq              0x200029f0     0x1  Data  Gb  stm32f4xx_hal.o [1]
uwTickPrio              0x200029f8     0x4  Data  Gb  stm32f4xx_hal.o [1]
validate                0x08008453    0x34  Code  Lc  ff.o [1]
version                 0x200025a0    0x14  Data  Gb  LF__EventThread.o [1]
wait_ready              0x0800e63b    0x24  Code  Lc  user_diskio_spi.o [1]
working_time            0x20008d0c  0x20d0  Data  Gb  LF__EventThread.o [1]
xchg_spi                0x0800e61f    0x1c  Code  Lc  user_diskio_spi.o [1]
xmit_datablock          0x0800e6dd    0x46  Code  Lc  user_diskio_spi.o [1]


[1] = C:\Users\Adinor\Documents\stm32_master\RTOS_Main_App\STM32_Main_App\EWARM\STM32_Main_App\Obj
[2] = command line
[3] = dl7M_tlf.a
[4] = m7M_tls.a
[5] = rt7M_tl.a
[6] = shb_l.a
[7] = tx.a

  63 500 bytes of readonly  code memory
     363 bytes of readonly  data memory
  81 879 bytes of readwrite data memory

Errors: none
Warnings: none
